:020000040800F2
:1000000000000120E9680008D16B0008D56B0008EA
:10001000D96B0008DD6B0008E16B0008316C00084B
:10002000316C0008316C0008316C0008316C00083C
:10003000316C0008316C0008316C0008ED75000867
:10004000316C0008316C0008316C0008E96600086A
:10005000316C0008316C0008316C0008316C00080C
:10006000316C0008316C0008316C0008316C0008FC
:10007000316C0008316C0008316C0008316C0008EC
:10008000316C0008316C0008A96C0008316C000864
:10009000316C0008316C0008316C0008316C0008CC
:1000A00035780008597800087D780008B578000890
:1000B0000979000879790008E97900089173000846
:1000C000A97300089D730008B5730008316C00081F
:1000D000316C0008E17C0008357D0008897D00084E
:1000E000316C000831670008316C0008117B000892
:1000F000357B0008597B0008917B0008F96C0008EB
:10010000316C0008316C0008597A0008316C000825
:10011000DD7D0008317E0008C97A0008ED7A00080C
:10012000316C0008316C0008316C0008316C00083B
:1001300010B5054C237833B9044B13B10448AFF321
:1001400000800123237010BD9817002000000000DC
:100150003418010808B5064B1BB106480649AFF331
:1001600000800648036813B1054B03B1984708BDEA
:1001700000000000341801089C1700209817002088
:1001800000000000012902D11C30C0B270470629CE
:1001900084BF01F1FF31C9B211F0010F14BF1E205D
:1001A0001F207047444B2DE9F047B1FBF3F603FBEA
:1001B00016113C23B1FBF3F203FB12120546027049
:1001C0004FF46160B1FBF0F200FB1211B1FBF3F3ED
:1001D0006B704FF4FA63AA70B6B2EB80EC884FF400
:1001E000C873B4FBF3F803FB18481FFA88F8B8F19A
:1001F000000F16D06423B4FBF3F203FB12439BB24F
:10020000002B53D014F0030140F26D130CBF4FF4D8
:10021000B7721A4696420EDB002908BF4FF4B77337
:1002200004E0B6F5B77F06DB4FF4B773F61A013476
:10023000B6B2EC80D2E700236B716423B4FBF3F712
:1002400003FB1747BFB2B8F1000F06D03FB114F05F
:10025000030F14BF0020012002E0012000E0384617
:1002600095F80590C0B24946FFF78CFF864209F128
:10027000010A15D3B8F1000F06D03FB114F0030FF7
:1002800014BF0020012002E0012000E03846C0B287
:100290004946FFF777FF301A86B285F805A0D2E706
:1002A00001362E7185F805A0BDE8F087B6F5B67F5A
:1002B000C1DD40F26D13B9E780510100F8B5427815
:1002C00087783C2303FB072702780579467903FBEF
:1002D0000727013D013EEDB2F6B2044605714671B5
:1002E000013E731CE38834D04FF4C872B3FBF2F1C3
:1002F00002FB113292B262B16422B3FBF2F002FB54
:10030000103080B230B113F0030F14BF0020012071
:1003100000E00120C0B2F1B2FFF734FF284485B2FB
:10032000DEE74FF4C872B3FBF2F102FB113292B276
:10033000AAB16422B3FBF2F102FB113292B28AB18C
:1003400013F0030F40F26D1208BF4FF4B77215445B
:10035000ADB2013B9BB2B3F5FA6FE2D205E04FF4C8
:10036000B772F4E740F26D12F1E7024800FB057046
:10037000F8BD00BF8051010010B504462CB14FF408
:100380007A7008F01DFC013CF8E710BD10B517218C
:1003900004461622024802F001FF204610BD00BFAD
:1003A000B817002070B50F4C0E4640F4A00105466A
:1003B000C1F30741204602F084FFC5F30721204620
:1003C00002F090FFE9B2204602F08CFF3146204651
:1003D00002F088FF204602F080FFBDE87040052053
:1003E000FFF7CABFB817002070B5114C40F4A00643
:1003F000C6F3074605463146204602F062FFC5F3C4
:100400000721204602F06EFFE9B2204602F06AFFA3
:10041000204602F062FF20463146012202F066FFCC
:10042000207A20B12046BDE8704002F06DBF70BD5B
:10043000B81700200148FFF7A9BF00BFB41700207C
:10044000002870B503DA01241C70404201E000244A
:100450001C7042F20F73984202DD99230B701DE06D
:100460004FF47A750E4B90FBF5F503FB05036424FE
:1004700093FBF4F404F00F0646EA05150D70E4B2A0
:100480006FF0630101FB04340A2390FBF3F103FBDB
:10049000110094FBF3F4E4B240EA0413137070BD4E
:1004A00018FCFFFF0A22B0FBF2F302FB130040EA44
:1004B0000310C0B270470000D30770B548BF0132C7
:1004C0000024520802312346E5B2954225D211F8A4
:1004D000025CA5F14106F6B2052E02D8104B9B5DD9
:1004E00005E0303DEDB2092D03D80E4B5B5D1B01DD
:1004F000DBB211F8015CA5F14106F6B2052E01D878
:10050000074D04E0303DEDB2092D02D8054E755D72
:100510002B43035502310134D6E7002070BD00BFE4
:1005200032300108283001082DE9F04781460F4696
:1005300092460CF0E5F80023C0B21D46DEB219F871
:1005400006402E2C0FD02C2C05D1013EC8EB060600
:100550008AF8006008E014B97C55BDE8F0876A1C91
:100560007C55D5B200E0B0460133DAB28242E5D91B
:10057000BDE8F0872DE9F04F824687B00846144663
:10058000994609F0C3FEC9EB0406CDE900013046E7
:1005900009F0AAFE02460B4600204D4908F066FC11
:1005A00002460B46DDE900010AF08AF930B94FF046
:1005B000020896FBF8F80546013E07E05046002188
:1005C000224607B0BDE8F04F0BF036BC454536DAA1
:1005D000304609F089FE02460B4600203C4908F0EF
:1005E00045FCCDE90201701E09F07EFE02460B4675
:1005F0000020374908F03AFCDDE90223CDE9040187
:10060000DDE900010AF000F80AF06EF9DDE90423E3
:100610000A2790FBF7FB0BFB17004FEA001BDDE9F5
:10062000000109F0F1FF0AF05FF990FBF7F303FB1B
:10063000170083440AF805B0023E0135C6E709EB0E
:1006400048094FF0020BC4EB090994FBFBFB09F1CD
:100650000109D84538DA484609F046FE02460B46FD
:1006600000201B4908F002FC064609F101000F4674
:1006700009F03AFE02460B460020154908F0F6FB49
:1006800032463B4604460D46DDE9000109F092FE84
:100690000AF02AF90A2690FBF6F707FB16002B460C
:1006A00007012246DDE9000109F084FE0AF01CF989
:1006B00090FBF6F303FB160007440AF8087009F1F3
:1006C000020908F10108C4E707B0BDE8F08F00BFD8
:1006D000000024402DE9F84307460D46904601EB03
:1006E00003090C464C4507D0C5EB08032046195DAD
:1006F000BE68B0470134F5E7BDE8F8832DE9F04165
:1007000006460D46174601EB03080C46444506D045
:100710002046F16888477B1B18550134F6E7BDE891
:10072000F081016800F110021023FFF7D3BF0168C8
:1007300000F110021023FFF7E1BF8160C260704733
:1007400010B5016010314160DB21017400210446C5
:1007500041618361C261FFF7E4FF207CDB3818BF91
:10076000012010BD08B5016010314160FFF7DFFFC7
:10077000002008BD10B583694468013903FB0141BD
:10078000FFF7A8FF002010BD10B559B14369994289
:1007900008D883694468013903FB0141FFF7AEFFC4
:1007A000002010BD022010BD38B543690A46591C0F
:1007B000C3690446A3F110058369B5FBF3F39942BD
:1007C00007D84161FFF7D6FF2046FFF7AAFF0020B8
:1007D00038BD032038BD4069704710B50446FFF7A7
:1007E000A6FF20462168E269A369BDE81040FFF733
:1007F000A7BF436910B501333B2B01DC43610BE01C
:100800000269002301323B2A436101DC026103E0FB
:100810000361C3680133C360C36803F10802172A88
:1008200001DCC26010BD103BC3604368826823F0E6
:10083000040101320229826005D0042B03D023F089
:100840000201092901D11E2A00E01F2A03DD01222D
:100850001344826043600368826813F0030F16D16B
:100860004FF4C87193FBF1F401FB143129B16421F9
:1008700093FBF1F401FB143149B11D2A09DD4268F3
:10088000022A06D1012282600322426001E01C2A72
:10089000F4E742680C2A03DD0C3A0133426003603E
:1008A00010BD10B58B68044608F054F8204610BD02
:1008B00070B58CB004460D4603A8264907F032FEF9
:1008C0002046002107F0DCFF03784E2B07D120469D
:1008D000012107F0D5FF03784F2B00F08F811E49CF
:1008E00006A807F01FFE06A9204608F00CF8002213
:1008F0000346214609A808F02DF809A903A807F026
:100900005EFE09A807F0CCFD06A807F0C9FD03A804
:1009100008F0F5F8104906A807F004FE06A92046DD
:1009200007F0F1FF2146421C09A8FFF7BAFF09A909
:10093000204607F044FE09A807F0B2FD06A807F01C
:10094000AFFD2046002107F09BFF03782D2B05D13A
:10095000012604E0C8600108EC600108002685F863
:100960005260A94906A807F0DDFD06A9204607F058
:10097000CAFF32460346214609A807F0EBFF09A942
:1009800003A807F01CFE09A807F08AFD06A807F0D7
:1009900087FD059A0023013205F1310103A807F014
:1009A0007DFF03A808F0B0F89749E86106A807F0B2
:1009B000B9FD06A9204607F0A6FF2146421C09A85A
:1009C000FFF76FFF09A9204607F0F9FD09A807F016
:1009D00067FD06A807F064FD0021204607F050FFE0
:1009E000037889492D2B0CBF0126002685F851601C
:1009F00006A807F097FD06A9204607F084FF3246B7
:100A00000346214609A807F0A5FF09A903A807F096
:100A1000D6FD09A807F044FD06A807F041FD059A98
:100A20000023013205F1210103A807F037FF03A8D5
:100A300008F06AF87449A86106A807F073FD06A9D2
:100A4000204607F060FF2146421C09A8FFF729FF56
:100A500009A9204607F0B3FD09A807F021FD06A863
:100A600007F01EFD684906A807F05CFD06A92046B0
:100A700007F049FF00220346214609A807F06AFF54
:100A800009A903A807F09BFD09A807F009FD06A81E
:100A900007F006FD03A808F032F85B49C5F88000AE
:100AA00006A807F03FFD06A9204607F02CFF2146C7
:100AB000421C09A8FFF7F5FE09A9204607F07FFDB3
:100AC00009A807F0EDFC06A807F0EAFC4E4906A8C5
:100AD00007F028FD06A9204607F015FF002203466F
:100AE000214609A807F036FF09A903A807F067FD0A
:100AF00009A80A2607F0D4FC06A807F0D1FC324664
:100B0000002168460BF098F903A8694609220023E2
:100B100007F0C4FE9DF800309DF80120303B06FB35
:100B2000032303F5F4632B609DF803209DF8043044
:100B3000303A303B06FB02339DF806206B609DF88F
:100B40000730303A303B06FB02332F49AB6006A832
:100B500007F0E8FC06A9204607F0D5FE2146421C16
:100B600009A8FFF79EFE09A9204607F028FD09A85D
:100B700007F096FC06A807F093FC234906A807F0A7
:100B8000D1FC06A9204607F0BEFE002203462146FE
:100B900009A807F0DFFE09A903A807F010FD09A8BE
:100BA00007F07EFC06A807F07BFC0021092209A8BB
:100BB0000BF042F903A80922002309A907F06EFEF1
:100BC0009DF824209DF82530303A303B06FB023357
:100BD0009DF82720EB609DF82830303A303B06FB2B
:100BE00002339DF82A202B619DF82B30303A303BA0
:100BF00006FB023628466E61FFF7FBFD03A807F0EF
:100C00004FFC0CB070BD00BFEC60010870B58EB039
:100C100004460D4601A88E4907F084FC20460021B9
:100C200007F02EFE0378312B06D12046022107F073
:100C300027FE0378312B01D0002446E2854907A81E
:100C400007F070FC07A90022204607F04DFE0AAE0F
:100C5000421C21463046FFF724FE3146204607F06D
:100C6000AEFC304607F01CFC07A807F019FC7949D8
:100C700007A807F057FC07A90022204607F034FE1A
:100C80002146421C3046FFF70CFE3146204607F055
:100C900096FC304607F004FC07A807F001FC6D49FC
:100CA00007A807F03FFC07A90022204607F01CFE1A
:100CB000002203462146304607F04CFE314601A88B
:100CC00007F07DFC304607F0EBFB07A807F0E8FBD8
:100CD000039A002301A83146013207F0DFFD00230B
:100CE000F25C303AF25401330E2BF9D19DF82930E1
:100CF000642253439DF828104FF47A7202FB0132AC
:100D00009DF82A100A2303FB01229DF82B1004A84A
:100D10000A44EA629DF82C109DF82D2003FB012265
:100D20009DF82E102A639DF82F2003FB01229DF8C9
:100D300030106A639DF8312003FB01229DF83210C8
:100D4000AA639DF8332003FB01229DF83410EA6367
:100D50009DF8352003FB01233E492B6407F0E2FB9D
:100D600004A90022204607F0BFFD2146421C07A827
:100D7000FFF797FD07A9204607F021FC07A807F019
:100D80008FFB04A807F08CFB2046002107F078FDBC
:100D900003782D2B0AD101262E4985F8286004A856
:100DA00007F0C0FB204604A9002209E000262949DB
:100DB00085F8286004A807F0B5FB204604A9324650
:100DC00007F092FD32460346214607A807F0C2FD10
:100DD00007A901A807F0F3FB07A807F061FB04A827
:100DE00007F05EFB039A0023013205F1080101A818
:100DF00007F054FD01A807F087FE1649286004A8F3
:100E000007F090FB04A90022204607F06DFD214663
:100E1000421C07A8FFF745FD07A9204607F0CFFBB6
:100E200007A807F03DFB04A807F03AFB2046002185
:100E300007F026FD03782D2B0ED10126054985F8F4
:100E4000296004A807F06EFB204604A900220DE0EB
:100E5000C8600108EC60010800269F4985F82960F8
:100E600004A807F05FFB204604A9324607F03CFDCA
:100E700032460346214607A807F06CFD07A901A8E2
:100E800007F09DFB07A807F00BFB04A807F008FB81
:100E9000914904A807F046FB04A90022204607F068
:100EA00023FD00220346214607A807F053FD07A9AA
:100EB00001A807F084FB07A807F0F2FA04A807F0DE
:100EC000EFFA039A0023013205F1180101A807F097
:100ED000E5FC01A807F018FE7F49686004A807F048
:100EE00021FB04A90022204607F0FEFC2146421CFB
:100EF00007A8FFF7D6FC07A9204607F060FB07A864
:100F000007F0CEFA04A807F0CBFA734904A807F05B
:100F100009FB04A90022204607F0E6FC0022034654
:100F2000214607A807F016FD07A901A807F047FB0F
:100F300007A807F0B5FA04A807F0B2FA039A00234D
:100F4000013205F1500101A807F0A8FC01A807F043
:100F5000DBFD09F0DBF9C5E912015F4904A807F0E0
:100F6000E1FA04A90022204607F0BEFC2146421CFB
:100F700007A8FFF796FC07A9204607F020FB07A863
:100F800007F08EFA04A807F08BFA534904A807F07B
:100F9000C9FA04A90022204607F0A6FC0022034655
:100FA000214607A807F0D6FC07A901A807F007FB10
:100FB00007A807F075FA04A807F072FA039A00234D
:100FC000013205F1640101A807F068FC01A807F0EF
:100FD0009BFD4149286604A807F0A4FA04A9002251
:100FE000204607F081FC2146421C07A8FFF759FC68
:100FF00007A9204607F0E3FA07A807F051FA04A86A
:1010000007F04EFA344904A807F08CFA04A900222C
:10101000204607F069FC00220346214607A807F096
:1010200099FC07A901A807F0CAFA07A807F038FA3F
:1010300004A807F035FA039A01A805F178010132F6
:10104000002307F02BFC01A807F05EFD0826686767
:10105000214904A807F066FA04A90022204607F0F7
:1010600043FC2146421C07A8FFF71BFC07A92046AA
:1010700007F0A5FA07A807F013FA04A807F010FA7A
:10108000013EE5D1144904A807F04CFA204604A912
:10109000324607F029FC32460346214607A807F0EE
:1010A00059FC07A901A807F08AFA07A807F0F8F980
:1010B00004A807F0F5F901A807F021FD85F88800DC
:1010C00005F12C00FFF795FB012401A807F0E8F9D2
:1010D00020460EB070BD00BFEC60010808B51320BB
:1010E000012107F049FD1420012107F045FD1320DF
:1010F000002107F041FDBDE808401420002107F061
:101100003BBD08B51420012107F036FD1320002156
:1011100007F032FDBDE808401320012107F02CBD87
:1011200008B51420012107F027FDBDE80840142070
:10113000002107F021BD38B5044608250021142000
:1011400007F01AFD23064CBF01210021132007F0F0
:1011500013FD1420012107F00FFD013D1420002193
:1011600007F00AFD640015F0FF05E4B2E6D138BDD2
:1011700038B50C460546FFF7B1FF7820FFF7DBFFD7
:10118000FFF7CEFF0CB1402000E02046FFF7D3FF71
:10119000FFF7C6FF2846FFF7CEFFFFF7C1FFBDE808
:1011A0003840FFF7AEBF014608B9A62001E0A720EE
:1011B0000021FFF7DDBF10B5044630B9C820214635
:1011C000FFF7D6FFA120214605E0C0200021FFF750
:1011D000CFFFA0200021BDE81040FFF7C9BF0000ED
:1011E00038B50024A4F15000C0B20021FFF7C0FFC1
:1011F00000200146FFF7BCFF10200021FFF7B8FFD9
:101200000025074B01212344585D0835FFF7B0FF47
:10121000B5F5806FF5D10134082CE3D138BD00BF9E
:10122000C817002000220023064900201144C8549A
:101230000833B3F5806FF7D10132082AF3D1FFF7F5
:10124000CFBF00BFC817002008B51420002107F049
:10125000BFFC1320002107F0BBFC3220002107F067
:10126000B7FC0121322007F087FC642007F09AFCCC
:101270000021322007F080FCC82007F093FC3220C8
:10128000012107F079FCAE200021FFF771FF00205B
:101290000146FFF76DFF10200021FFF769FF402096
:1012A0000021FFF765FF81200021FFF761FFCF20BC
:1012B0000021FFF75DFFA1200021FFF759FFC820A3
:1012C0000021FFF755FFA6200021FFF751FFA820BE
:1012D0000021FFF74DFF3F200021FFF749FFD320FA
:1012E0000021FFF745FF00200146FFF741FFD52011
:1012F0000021FFF73DFF80200021FFF739FFD920B3
:101300000021FFF735FFF1200021FFF731FFDA2040
:101310000021FFF72DFF12200021FFF729FFDB201E
:101320000021FFF725FF40200021FFF721FF2020AB
:101330000021FFF71DFF02200021FFF719FF8D207C
:101340000021FFF715FF14200021FFF711FFA42053
:101350000021FFF70DFFA6200021FFF709FFAF20B6
:101360000021FFF705FFBDE80840FFF75BBF000065
:10137000C00000EBD100012201F0070102FA01F1E7
:10138000024B1A5C11431954704700BFC817002064
:10139000C00010B500EBD100012401F0070104FAF0
:1013A00001F1034B1A5C22EA0101195410BD00BF80
:1013B000C81700202DE9F74F83460D46904601934C
:1013C0004FF0000A5FFA8AF646452FD2DDF8049006
:1013D0000024A9445FFA89F9CDF800902746A94670
:1013E000009B99451FD00C9B06EB0B0008FB0731B7
:1013F00011F80A10C0B2214111F0010F494602D084
:10140000FFF7B6FF01E0FFF7C3FF0134E4B2072C9A
:1014100004D907F1010C5FFA8CF7002409F10103EC
:101420005FFA83F9DCE70AF1010ACBE703B0BDE814
:10143000F08F00002DE9F04F13F0070718BF0127C8
:1014400007EBD3071C465B085F43203A264BD2B21A
:101450004FF00C0808FB0238244B85B003EB021355
:101460000393234B4FF0240909FB0239FFB2019784
:1014700006468A46CDF808800D460027019BFAB241
:101480009A422DD20C2C07D1029B13F8078005F14C
:10149000080B5FFA8BFB0AE0102C01D1039BF4E7E9
:1014A000182C1DD119F80780F1E75D4516D018F00A
:1014B000800F3046294602D0FFF75AFF01E0FFF7C0
:1014C00067FF0135EDB2CAEB05014FEA4802A142C0
:1014D0005FFA82F8E9D10136F6B255460137CDE719
:1014E00005B0BDE8F08F00BF7359010892350108BF
:1014F000D34B01082DE9F8434FEA530804460D4643
:101500001E46C8F18009571E17F8012FA2F12003CB
:101510005E2B0CD82046444429463346E4B2FFF7FC
:1015200089FF4C45F0DD3544EDB20024ECE7BDE821
:10153000F88300002DE9F04F1C46624389B0DB08B8
:10154000D2100493059281468C460A460646002333
:1015500004995FFA83FB594558D005994FF0480A22
:101560008B442C495FFA8BFB01EB0B1107912A4945
:1015700000250AFB0B1A294901EBCB1106912849DA
:1015800001EB4B2BE9B2A1423ED2102C04D10799BA
:101590004F5D4FF000081AE0182C02D11AF80570C0
:1015A000F7E7202C01D10699F2E7402C2ED11BF849
:1015B0000570EEE7FFF7ECFEDDF804C0039B029A2E
:1015C00008F10108B8F1080F4FEA570710D00CEBEB
:1015D00008010393FB07C9B230460292CDF804C05C
:1015E000E8D5FFF7C5FE029A039BDDF804C0E7E7E4
:1015F0000136F6B2C9EB0601A14202D10832D2B2DD
:101600004E4601359446BDE70133A1E709B0BDE878
:10161000F08F00BF323101085A30010892330108BF
:10162000823B0108064BD91D002200209854083245
:10163000B2F5806FF9D101338B42F5D1FFF7D0BD00
:10164000C917002008B5FFF7EDFF10210B46202039
:101650000122FFF76FFF10210B4630200222FFF717
:1016600069FF10210B4640200322FFF763FF102182
:101670000B4650200422FFF75DFF10200346202177
:101680000522FFF757FF2020014606221023FFF70F
:1016900051FF3020202107221023FFF74BFF40206D
:1016A000202108221023FFF745FF1023502020217E
:1016B0000922FFF73FFFBDE80840FFF791BD00009A
:1016C00040F6B373994207B501D9124B16E0A1F564
:1016D0007063B32B01D8104B10E0A1F64C63B32B11
:1016E00001D80E4B0AE0A1F69853B32B01D80C4B4E
:1016F00004E0A1F6E441B32907D80A4B0093142073
:10170000002111220823FFF755FE03B05DF804EB1A
:10171000FFF766BD4930010840590108934B0108A5
:10172000824B01082F59010807B5084611B9114B22
:10173000009315E0012901D10F4B0EE0022901D1E0
:101740000E4B0AE0032901D10D4B06E0042901D11B
:101750000C4B02E0052907D10B4B002000930146FA
:1017600011220823FFF726FE03B05DF804EBFFF714
:1017700037BD00BF62590108E75D01083830010834
:10178000C24B010851590108B14B010830B593B063
:1017900004466049684606F0C5FE5E4903A806F0A7
:1017A000C1FE5C4906A806F0BDFE5A4909A806F02C
:1017B000B9FE2046584CFFF735FFD4F888100CA826
:1017C000632903D80A2206F024FF02E0534906F0F9
:1017D000A9FE0CA90FA806F0E8FE51490FA806F0D3
:1017E000F4FF0146684606F0D1FE0FA806F058FE49
:1017F0000CA806F055FE10210B460020009AFFF7BA
:1018000079FE102128200B460022FFF793FED4F822
:1018100090504449284609F0ABFB28B10CA8294652
:10182000022206F01AFF03E00CA83C4906F07AFEFB
:101830000CA90FA806F0B9FE3B490FA806F0C5FF9A
:10184000014603A806F0A2FE0FA806F029FE0CA888
:1018500006F026FE10210B464020039AFFF74AFEB1
:10186000D4F88010314B0CA8994203D80A2206F014
:10187000E2FE02E0294906F055FE0CA90FA806F089
:1018800094FE2B490FA806F0A0FF014606A806F01B
:101890007DFE0FA806F004FE0CA806F001FE002055
:1018A0002021069A1023FFF725FED4F894100CA8E7
:1018B000632903D80A2206F0ACFE02E0174906F0BD
:1018C00031FE0CA90FA806F070FE0FA8194906F00A
:1018D0007CFF014609A806F059FE0FA806F0E0FDBE
:1018E0000CA806F0DDFD2021099A10234020FFF707
:1018F00001FEFFF775FC09A806F0D2FD06A806F068
:10190000CFFD03A806F0CCFD684606F0C9FD13B074
:1019100030BD00BFC8600108D81B0020A74B0108DC
:10192000A44B01080000C842A25E01081FA10700E5
:10193000AC4B0108B25E010870B5344C96B001A8FA
:10194000334906F0EFFD0A22617904A806F050FE43
:1019500004A907A806F029FE07A82E4906F035FFBE
:101960000A22054621790AA806F042FE0AA928465D
:1019700006F01EFF284906F028FF0A220546A17836
:101980000DA806F035FE2846244D0DA906F010FFDF
:10199000294606F01AFF0A220646617810A806F0CA
:1019A00027FE10A9304606F003FF294606F00DFF7A
:1019B0000A220546217813A806F01AFE13A9284624
:1019C00006F0F6FE014601A806F0E0FD13A806F0B9
:1019D00067FD10A806F064FD0DA806F061FD0AA8D9
:1019E00006F05EFD07A806F05BFD04A806F058FDB2
:1019F0003021019A10230020FFF77CFDFFF7F0FB58
:101A000001A806F04DFD16B070BD00BFCA1B002036
:101A1000C8600108AF4B010882670108DF62010856
:101A200008B5184B1C201A68022122F0E06242F02F
:101A300000721A6007F0CCF81D20022107F0C8F8E8
:101A40001E20002107F0C4F81F20002107F0C0F875
:101A50000420002107F0BCF80520002107F0B8F8A9
:101A60002B20002107F0B4F80120002107F0B0F886
:101A70001520002107F0ACF8BDE808400420002143
:101A800007F07AB80400014008B51520002107F0DE
:101A900073F8BDE808400A2007F084B8152001213A
:101AA00007F06AB8000000002DE9F041431E86B03F
:101AB000642B044600AF04D810F0010F08BF0B24BC
:101AC00000E00B24A3000A3323F00703ADEB030D62
:101AD00004F1FF386D460026062007F029F845F886
:101AE00026000136F3B2A342F6D300210022D3B27E
:101AF00043450CDA5E1C55F823E055F82600013208
:101B0000864584BF45F826E045F82300EFE701311C
:101B1000CBB2A342EAD30134641055F8240009F093
:101B200031F808F0F3FB18A3D3E9002308F042FCD6
:101B300008F022FF164909F07DF809F067FA154907
:101B40000446384606F0EEFC394607F10C0006F074
:101B50002CFD214607F10C0006F05DFE0E4906F053
:101B600034FE01460D4806F091FB07F10C0006F02B
:101B700097FC384606F094FC20461837BD46BDE871
:101B8000F08100BFAFF300800F0BB5A679C7E93F26
:101B90000000C040F85D01080B5E010860200020D5
:101BA00008B50021012006F0E7FF4FF47A7006F037
:101BB000F9FF0120014606F0DFFFBDE808404FF4C1
:101BC000FA7006F0EFBF000008B5032004F06CFDCA
:101BD0000348044906F064FBBDE8084005F02ABC50
:101BE000602000200E5E010838B5074C05462046EF
:101BF00004F077FC054B42195D6020460449BDE8BE
:101C0000384004F070BC00BFC91B0020B41E002087
:101C1000C91B00080148112104F057BCC91B002052
:101C200070470120704701207047000070B5094DD2
:101C3000094C064622782978084801F0AFFA28783E
:101C4000012106F099FF2078012106F095FF30462A
:101C500070BD00BF0C0000200D000020781C00208B
:101C600010B5064C204601F02CFB204601F035FB58
:101C7000D0F1010038BF002010BD00BF781C00204B
:101C800010B54A2104460548FFF7EAFF28B123684A
:101C900020461B6801219847012010BD881C0020A8
:101CA00070B5094C154620461E4601F00AFB294630
:101CB000204601F017FB2046314601F013FB204679
:101CC000BDE8704001F009BB781C0020F8B513484E
:101CD00014461E460F469DF8185001F0F2FA2146B0
:101CE0000E4801F0FFFA0D4801F0F7FA0B4CA5B1D0
:101CF0002A462046394601F0F9FA0022237A551C7B
:101D000033B10648D7B201F0FFFA2A46F055F5E79D
:101D10000248BDE8F84001F0E0BAF8BD781C0020A8
:101D2000F0B51C4685B0012300930DF10F03154655
:101D300007460E46FFF7CAFF9DF80F309DF8282092
:101D400023EA040314402343384631462A468DF8DB
:101D50000F30FFF7A5FF05B0F0BD000013B500245C
:101D600071B1012213460B484A210094FFF7D8FFB6
:101D70004A210094074802224023FFF7D1FF802127
:101D8000009104484A2102228023FFF7C9FF02B0D4
:101D900010BD00BF881C002008B51E220F481F215F
:101DA00001F0FCF938210D4801F08BFA06210B48AF
:101DB00001F098FA094801F090FA4FF4FA7006F031
:101DC000F1FE0748FFF75CFF10B10648064901E045
:101DD00004480649BDE8084006F062BA7C1D0020B0
:101DE000D41B002060200020485E0108615E0108CD
:101DF00070B5094C072205460E460848242101F01B
:101E0000CDF9204601F084F909F000F93060204650
:101E100001F05CF9286070BD681D00206C1D002079
:101E2000F0B5334C85B005460E46FFF7B5FF3921B6
:101E30000122204601F05AFA012006F0B3FE277A6B
:101E40001FB1204601F060FA0746382101222848D8
:101E500001F04CFA012006F0A5FE207A10B12448CA
:101E600001F052FA40EA072008F02EFA1EA3D3E947
:101E7000002308F09FFA08F05FFD1E4930601E48FD
:101E800006F0F3F931680A221B4806F0A8FA02238B
:101E900000931A4803AB4A210322FFF717FF9DF86E
:101EA0000D209DF80C3002F00F0242EA03122D21A2
:101EB000D2B24A431B0902FA03F34FF47A72B3FB1E
:101EC000F2F32B600E490C4806F0CFF929680A227C
:101ED000094806F08EFA0B49074806F0E1F905B00B
:101EE000F0BD00BFAFF300800AD7A3703D0A773F73
:101EF0007C1D00207A5E010860200020881C0020E4
:101F0000805E0108975E010830B5012187B0A24CC0
:101F1000052006F031FE40F6B83006F043FE04F12D
:101F20008C0204F1880104F19000FFF761FF4FF487
:101F3000FA7006F037FE04F1940104F18000FFF717
:101F40006FFF4FF4FA7006F02DFE944804F0C9FAC2
:101F5000934D01462846FEF725F9EB8891496361C8
:101F60006B79914823612B79E360AB78A3606B7840
:101F700063602B78236006F093F968468B4906F07E
:101F8000D1FA694603A806F010FBD4F8881003A81C
:101F900006F041FC864906F018FC0146824806F02E
:101FA00075F903A806F07CFA684606F079FA6846E7
:101FB000804906F0B7FA694603A806F0F6FAD4F8A5
:101FC000901003A806F03BFC7B4906F0FEFB01469F
:101FD000754806F05BF903A806F062FA684606F059
:101FE0005FFA6846754906F09DFA694603A806F04F
:101FF000DCFAD4F8801003A806F017FC704906F04C
:10200000E4FB0146684806F041F903A806F048FAE7
:10201000684606F045FA68466A4906F083FA69465A
:1020200003A806F0C2FAD4F8941003A806F0F3FB54
:10203000654906F0CAFB01465B4806F027F903A88C
:1020400006F02EFA684606F02BFA68465F4906F05D
:1020500069FA694603A806F0A8FAA36A0A21B3FB45
:10206000F1F103A806F0D7FB514906F0AEFB01469B
:102070004D4806F00BF903A806F012FA684606F080
:102080000FFA6846524906F04DFA694603A806F071
:102090008CFA616A03A806F0D2FB474906F095FB6B
:1020A0000146414806F0F2F803A806F0F9F968463F
:1020B00006F0F6F96846474906F034FA694603A87F
:1020C00006F073FA616B03A806F0A5FB424906F01F
:1020D0007CFB0146344806F0D9F803A806F0E0F985
:1020E000684606F0DDF968463C4906F01BFA694689
:1020F00003A806F05AFA216B03A806F08CFB3849B6
:1021000006F063FB0146284806F0C0F803A806F075
:10211000C7F9684606F0C4F96846324906F002FA83
:10212000694603A806F041FAA06B08F02BFD2E4982
:1021300008F034FE014603A806F081FB2B4906F0A7
:1021400044FB0146184806F0A1F803A806F0A8F9D8
:10215000684606F0A5F91349134806F0A1F872B6CF
:102160004FF4A0612248FEF7FDFA2148FEF733FB49
:1021700062B650B11F4B1B68984206D204F002F8B9
:1021800004F066F81C4B01221A740649064806F052
:1021900087F807B030BD00BFD81B0020C91B002046
:1021A000CA1B0020C860010860200020BD5E010835
:1021B0009C5E0108D15E0108A15E0108A65E0108CF
:1021C000975E0108AC5E0108B15E0108B75E0108C8
:1021D000CB5E0108DC5E0108E95E0108EF5E0108E4
:1021E000FC5E0108035F01080000C8428267010825
:1021F000E01F002018000020B41E002008B503488E
:10220000FFF714FD024A034B1A6008BD881C00202A
:10221000305E0108D41B0020024B2421072283E8F2
:10222000060070478C1C002013B5026802AB03F84F
:10223000011D546A19460122A04702B010BD07B51E
:1022400003680DF107019B6A0122984701280CBF22
:102250009DF807004FF0FF3003B05DF804FB4FF02E
:10226000FF30704708B50369186803689B69984791
:1022700008BD036810B5DB680446984708B9207F9D
:1022800010BD012010BD08B503681B6B98470030D6
:1022900018BF012008BD0000F0B585B00C46064609
:1022A000194901A81746194D06F03CF901A810215B
:1022B00006F014F9217901A806F020FA294601A8B0
:1022C00006F000FA617901A806F018FA294601A87B
:1022D00006F0F8F9A17901A806F010FA294601A83C
:1022E00006F0F0F9E17901A806F008FA33680199DF
:1022F0001B6A3A4630469847044601A806F0D0F8D3
:10230000204605B0F0BD00BFC8600108626B01083F
:1023100008B50B4B1E20197881F00101197006F0E9
:102320002BFC084B1A680132B2F5967F01D21A6075
:1023300008BD00221A6072B6BDE8084005F07AB800
:10234000A01C0020641D002010B50446206803680E
:10235000DB68984710B906F025FCF7E720680368AA
:102360001B6998472C28F1D1012010BD2DE9F04FB1
:10237000054687B08A46104640211E461446129FE5
:1023800006F0ACF88F4BD3F800B0002006F00AFC42
:1023900028680368DB689847002840F3E4802868D1
:1023A00003681B699847011EF2DD2046C9B206F09A
:1023B00098F916B9109BA3B910E0314603A806F0AE
:1023C000B1F8204603A906F044FA814603A806F0B6
:1023D00067F8B9F1000FEDD00120EFE0119B9BB938
:1023E00010E0109903A806F09DF8204603A906F016
:1023F00030FA814603A806F053F8B9F1000FEDD08A
:102400000220DBE0A7B910E0119903A806F08AF8D2
:10241000204603A906F01DFA814603A806F040F8FD
:10242000B9F1000FEED00320C8E0139B0BBB10E006
:10243000394603A806F076F8204603A906F009FA03
:10244000814603A806F02CF8B9F1000FEDD0042066
:10245000B4E05D4903A806F065F8204603A906F03C
:10246000F8F9814603A806F01BF8B9F1000F11D165
:1024700039E0139903A806F055F8204603A906F0A1
:10248000E8F9814603A806F00BF8B9F1000FE0D097
:10249000052093E0684629682C2205F0D9FF68469C
:1024A00006F02DFB0128814615D129680A2203A8D0
:1024B00005F0CEFF03A806F022FB804603A805F036
:1024C000EFFF2046414906F082F805EB88035B6880
:1024D00083F81D9003E02046694606F0EEF8684652
:1024E00005F0DEFF54E73A4903A806F01BF8204642
:1024F00003A906F0AEF9804603A805F0D1FFB8F1B4
:10250000000F3FF445AF334903A806F00BF8A2686B
:1025100003A9083A204606F0F9F9804608F10208B6
:1025200003A805F0BDFF42462C21204606F0CEF957
:1025300042460346214603A806F00CFA03A806F01B
:10254000DEFA804603A805F0ABFFB8F1000F3FF4B8
:102550001FAF05EB88035B68204683F81C901B497E
:1025600006F035F814E7174B1B68CBEB0303534514
:10257000FFF40BAF204606F098FAA368CBB12146D2
:10258000684606F012F81449144805F06EFE202142
:10259000124805F065FE694603A806F006F803A98F
:1025A0000E4805F073FE03A805F07AFF684605F0B3
:1025B00077FF2046054906F00AF80020C0B207B0B0
:1025C000BDE8F08FBC210020B3600108C86001089D
:1025D000C0600108C6600108C960010860200020D1
:1025E000F0B589B01C4607460E4605A80B491546AE
:1025F00005F098FF00940E9C314601940F9C05AAAB
:102600000294109C2B4603943846FFF7AFFE044615
:1026100005A805F045FF204609B0F0BDC8600108D7
:10262000F0B5044685B00E46006821491F461546A0
:1026300005F01BFE20681F4905F017FE0A223946E7
:10264000206805F0BAFE20682C2105F009FE2068FC
:10265000194905F00AFE2068184905F006FE3146C2
:10266000206805F002FE2068154905F0FEFD0A22EB
:102670002946206805F080FE1249206805F0F5FD26
:10268000206803689B699847002006F08BFA0E4B80
:10269000204600930023019302930C490C4A0D4BF2
:1026A000FFF79EFF431E5842584105B0F0BD00BFE2
:1026B000D8600108DB600108E6600108C466010813
:1026C000EB600108C66001080A610108F8240100F6
:1026D000EE600108FB60010870B5044600200E465C
:1026E000154606F05FFA0023C4F8A430C4F8A03001
:1026F000206931462A46237DFFF792FF003018BF3C
:102700000120207770BD7FB5089C0E460194099C7E
:102710001546009302944FF47A7132462B46FFF728
:102720005FFF04B070BD000008B51148012105F03D
:1027300001FD1E20002106F01FFA1F20002106F0D7
:102740001BFA0420002106F017FA0520002106F0EC
:1027500013FA00212B2006F00FFA012004F078FE76
:10276000012004F08FFEBDE8084004F077BE00BFF2
:102770005821002008B50B20FFF796F940F6E343F7
:10278000984208D81E491F4805F08AFD642006F0CB
:1027900009FAFFF7C9FF1C480021FEF7C5FF01F049
:1027A0003DFE40B91949174805F07AFD642006F04E
:1027B000F9F9FFF7B9FF03F0AFF940B9144911482F
:1027C00005F06EFD642006F0EDF9FFF7ADFF02F0B5
:1027D000BFFD50B10F490B4805F062FD642006F0C3
:1027E000E1F9BDE80840FFF79FBF0B49054805F038
:1027F00057FD642006F0D6F9BDE8084004F01ABE83
:102800001C61010860200020C81B00203E610108F7
:1028100078610108B8610108FC61010810B51D204C
:1028200006F094F9C8B901211E2006F0A5F94FF46D
:102830007A7003F01DFE1D2006F088F9044660B989
:10284000064B0122064907481A7005F029FD21466A
:102850001E20BDE8104006F08FB910BD951D002068
:102860003A6201086020002010B51C2006F06EF9C5
:10287000F0B901211E2006F07FF94FF47A7003F0C1
:10288000F7FD1C2006F062F9044688B94FF4A061F8
:102890000848FDF767FF0748FDF79FFF064907480F
:1028A00005F0FEFC21461E20BDE8104006F064B98C
:1028B00010BD00BFE01F002057620108602000200B
:1028C00010B586B0FFF7ACF88D484FF4E13105F054
:1028D000CDFB8C484FF4165105F0C8FB4FF4165150
:1028E000894805F0C3FB40F6B83006F05BF987492C
:1028F000684605F017FE694603A805F056FE8449B0
:1029000003A805F062FF01467D4805F0BFFC03A85F
:1029100005F0C6FD684605F0C3FD7E49684605F032
:1029200001FE694603A805F040FE7B4903A805F0B7
:102930004CFF0146724805F0A9FC03A805F0B0FD64
:10294000684605F0ADFD7549684605F0EBFD694642
:1029500003A805F02AFE724903A805F036FF0146D8
:10296000674805F093FC03A805F09AFD684605F05A
:1029700097FD6C49684605F0D5FD694603A805F04A
:1029800014FE2D2103A805F03CFF01465C4805F02C
:102990007DFC03A805F084FD684605F081FD6249D1
:1029A000684605F0BFFD694603A805F0FEFD5F49D6
:1029B00003A805F00AFF0146514805F067FC03A88B
:1029C00005F06EFD684605F06BFD04F015FA5849F8
:1029D0004B4805F065FCB420FFF706F95549484817
:1029E00005F05EFCFEF730FC0020FEF7DCFB00206B
:1029F000FEF7E1FB5049424805F052FC0B20FFF77F
:102A000053F840F6E343984208D84C493C4805F057
:102A100047FC642006F0C6F8FFF786FE0B20FFF7A0
:102A200043F801464648FEF74BFE464803F00AFBD2
:102A30004549334805F034FCFFF7F0FEFFF714FF7B
:102A400002224248012105F05EFB41493F4805F062
:102A50003BFB01210A463D4805F059FB3D4A3B48F6
:102A6000012105F063FB3C49254805F019FC3B4971
:102A7000234805F015FC3248394CFEF7E3FDFFF71B
:102A800043FA6846374905F04DFD694603A805F04D
:102A90008CFDE18803A805F0B4FE334905F095FEEE
:102AA000617905F0A4FE314905F08FFE217905F02A
:102AB0009EFE2F4905F089FEA17805F098FE2D496C
:102AC00005F083FE617805F092FE2B4905F07DFE4E
:102AD000217805F08CFE294905F077FE014608486B
:102AE00005F0D4FB03A805F0DBFC684605F0D8FC34
:102AF0001348FEF74BFE1248FEF71EFF06B010BD4E
:102B00006020002090200020782000206F620108C3
:102B100076620108DA620108E1620108ED620108EB
:102B2000F4620108FD62010804630108A86001085D
:102B30000B6301081E630108376301081C6101086B
:102B4000C81B0020301E00204B63010858210020C4
:102B500040420F0011230008606301087A630108F6
:102B6000CA1B0020996301089F630108A363010841
:102B7000A7630108AB630108AF630108B3630108F1
:102B800070B504460D4600680C49164605F06DFB0D
:102B90002946206805F069FB31460A22206805F0C5
:102BA0000CFC2068064905F060FB206803689B69FF
:102BB0009847BDE87040002005F0F4BFD8600108D8
:102BC000C660010813B50446002005F0EBFF20693C
:102BD000227D0749FFF7D4FF002323770093019359
:102BE00020690449044AFFF78EFD02B010BD00BF02
:102BF000B7630108AE6001082E640108F0B50F4606
:102C000087B00025044626493A46FFF7B9FF0095EC
:102C1000019520462349244A2B46FFF774FD0128DD
:102C20001AD12046FFF790FB2046FFF78DFB216865
:102C30000A2203A805F00CFC03A805F060FF064675
:102C400003A805F02DFC0095019520461749164A6A
:102C50002B46FFF758FDFEB904EB87033A462046A2
:102C600013495E68FFF78CFF124B00250093124951
:102C7000124A134B01952046FFF745FD2B460746A8
:102C80000095019520460949074AFFF73CFD7B1E48
:102C90005F425F4137772E46304607B0F0BD00BF38
:102CA000C2630108B56001082E640108AE60010826
:102CB000CF630108FD630108DB630108E8630108D5
:102CC000F26301087FB50546002405EB84035E68C6
:102CD00046B1737F33B1002373772846E1B2FFF723
:102CE0008DFFF0820134052CEFD128680368DB6882
:102CF000984748B1002200920192029228460A2188
:102D00001346FFF76DFCF0E704B070BDD0F88020EB
:102D1000D0F88430D01A48BF8030704738B50446A8
:102D2000002005F03FFF237F04F120058BB12846EA
:102D3000FFF7ECFF68B90A4BA26919688A1AB2F565
:102D4000FA7F03D91B6801226277A3612069FFF72C
:102D5000B9FF2846FFF7DAFFE38A184438BD00BF01
:102D6000BC2100202DE9F04104460E4600681249BE
:102D70001F469046069D05F078FA3146206805F01A
:102D800074FA41460A22206805F017FB394620688C
:102D900005F066FA29460A22206805F017FB20682C
:102DA000064905F062FA206803689B699847BDE808
:102DB000F041002005F0F6BED8600108C6600108A9
:102DC000F0B587B00025044600920F4616461C4910
:102DD0001A462C23FFF7C6FF009501952046194996
:102DE000194A2B46FFF78FFC012802D04FF0FF3421
:102DF00022E020683946036832469B68984720687D
:102E000003689B6998470095019520460F490E4A33
:102E10002B46FFF778FC0128E8D12046FFF794FA0B
:102E2000216803A80A2205F013FB03A805F067FE3A
:102E3000044603A805F034FB204607B0F0BD00BFF0
:102E400008640108506401082E6401081264010836
:102E500070B5044600200E46154605F0A3FE206915
:102E6000FFF730FF206931462A46237DFFF7A8FF90
:102E700070BD00002DE9F04186B0002504460091A8
:102E80002C232F491646FFF76DFF0095019520462C
:102E90002C492D4A2B46FFF736FC01284BD1204602
:102EA000FFF752FA2046FFF74FFA21682C2203A8B9
:102EB00005F0CEFA03A805F022FE074603A805F0A8
:102EC000EFFA04EB860603A821680A22D6F80480EC
:102ED00005F0BEFA03A805F012FEA8F8160003A834
:102EE00005F0DEFABD421ED020680368DB68984713
:102EF00010B905F057FEF7E7206803681B6998478B
:102F000073685FFA80FED3F8A010D3F8A4004A1CBF
:102F100002F07F02824204D0194481F820E0C3F815
:102F2000A0200135DEE700230093019320460749E6
:102F3000054AFFF7E8FB284606B0BDE8F08100BF70
:102F400021640108B56001082E640108AE60010823
:102F50002DE9F74F044600208946019205F022FE34
:102F60002069FFF7AFFE0025019B9D4245D2019BE2
:102F700004F1200B5846C5EB0308FFF7C7FE404598
:102F800038BF8046B8F1000F24D04746CA4658469D
:102F9000FFF7BCFE10B9C1444544E5E7D4F8A430BE
:102FA000C3F18006B742B8BF3E468642A8BF064678
:102FB0000BEB030150463246009308F061FE009B84
:102FC000BF1B03EB060C0CF07F02C4F8A420B24434
:102FD000E1D0DCE72069FFF775FEE38A6BB1D4F836
:102FE000A420D4F8A0302069D11A0029D8BF80319C
:102FF0000139227DFFF73EFFB6E7284603B0BDE862
:10300000F08F000013B50024224623460094214689
:103010000D4805F0E5F80D4B0D4A0E481A604FF4C7
:103020007A7282600C4A446002600122C0F8A440B7
:10303000C0F8A04003610275C482846104774477BC
:10304000986002B010BD00BF981C00204C1D0020ED
:1030500078200020A41C00207060010838B5194CAD
:103060000D462046402100F02CF92946204600F06C
:1030700039F9204600F031F9642005F093FD402134
:103080000322204600F032F90F4B217A1A680229F8
:1030900002F5967203D819689142FCD010E02046E0
:1030A00000F032F90546204600F02EF900EB05202D
:1030B0004FF6FC750540204600F026F9284638BD3D
:1030C000002038BD6C1D0020BC21002010B5F5216A
:1030D000FFF7C4FF07F056FD0021044607F03EFF4E
:1030E00068B9204607F012F90022064B07F062F992
:1030F0000022054B06F0AAFF07F03EFC10BD0020A1
:1031000010BD00BF00405F3F0000184000000000FD
:1031100010B5F321FFF7A2FF07F034FD00210446AC
:1031200007F01CFF78B9204607F0F0F808A3D3E9B0
:10313000002307F03FF908A3D3E9002306F086FF38
:1031400007F01AFC10BD064810BD00BFAFF30080A9
:10315000D7A3703D0AF7653FCDCCCCCCCC6C4740B3
:10316000008088C3AFF300800A4B1A680A4B9B6843
:1031700000BF00BF074909688A42F5D1C3F58C3307
:10318000482103F5A073B3FBF1F34FF47A7000FB11
:1031900002307047BC21002010E000E010B504466A
:1031A00080E80600D0B2002105F012FD2078002151
:1031B00005F00EFD00232079E360012105F0DCFC21
:1031C00020780121BDE8104005F0D6BC38B5C368B1
:1031D00004460D4623B10021C160007805F0F8FCDB
:1031E00020782946BDE8384005F0C6BC10B500215E
:1031F0000446FFF7EBFF642005F0E2FC2079002194
:1032000005F0BAFCBDE81040642005F0D9BC10B54B
:1032100000210446007905F0AFFC642005F0D0FCE5
:1032200020460021FFF7D2FF642005F0C9FC207979
:10323000012105F0A1FC642005F0C2FC204601211B
:10324000FFF7C4FFBDE81040642005F0B9BCF8B535
:1032500004460E460825F7092079002105F08CFC6C
:1032600020463946FFF7B2FF0121207905F084FCA2
:10327000642005F0A5FC20463946FFF7A7FF76003D
:10328000013DF6B2E7D12946207905F075FC20789A
:10329000022105F09DFC0223E3602079012105F065
:1032A0006BFCFFF761FF0546207805F04FFC30B15D
:1032B000FFF75AFF401B6428F6D90020F8BD012013
:1032C000F8BD38B50D460446FFF790FF690020466B
:1032D00001F0FE01FFF7BBFF38BD08B5FFF797FF10
:1032E000002008BD08B5FFF7B2FF08BD70B50D4658
:1032F0006D0004461646FFF779FF691CA66020465C
:10330000C9B2FFF7A4FF70BD70B586680446002EF1
:1033100055D00078022105F05BFC0223E36008250C
:1033200000262079002105F027FC0121207905F0F5
:1033300023FC642005F044FC207805F007FC013DE7
:1033400000EB460000F0FF06EBD1A3686068013B8C
:10335000002BA360C0B2294617DD05F00DFC6420E8
:1033600005F02EFC29462046FFF730FF642005F0CB
:1033700027FC2079012105F0FFFB642005F020FCEB
:103380002079294605F0F8FB19E005F0F5FB6420EB
:1033900005F016FC01212046FFF718FF642005F018
:1033A0000FFC0121207905F0E7FB642005F008FC03
:1033B0002079294605F0E0FB2046FFF728FF30463C
:1033C00070BD002330B5054618468B420FDAEA5C23
:1033D0005040082210F0010F4FEA60041ABF84F039
:1033E000E000C0B2E0B2013AF4D10133EDE730BD04
:1033F00010B5044620680368DB68984710B905F0EB
:10340000D1FBF7E7206803681B6998472C28F1D1A6
:10341000012010BD2DE9F041C44DC8B0697B0022E8
:103420004C298DF8042008AC4FF0FE00C04B40F052
:1034300008812070D02060702720A0701878BD4FC0
:10344000E0705878617220719878DB786071A371B0
:103450000623E37107F12100022323720292ADF8E3
:103460000C2009F04DF904A9C3B201AA07F121000B
:10347000FDF75AF804A809F043F904A9024602A886
:10348000FDF71AF89DF80830A3729DF80930E37231
:103490009DF80A3023739DF80B3063739DF80C3050
:1034A000A37397F851300BB9E82302E0012B03D145
:1034B000F823E373102600E00F2600239E480293B2
:1034C000ADF80C3009F01CF904A9C3B201AA9A485E
:1034D000FDF72AF804A809F013F904A9024602A886
:1034E000FCF7EAFF9DF808309DF80920A355731CEE
:1034F000E2549DF80A20B31CE2549DF80B20F31C03
:10350000E2549DF80C20331DE25497F85230751D9B
:103510000BB9E72302E0012B02D1F7236355B51D58
:103520006A1CFF23D2B26355A354AA1CD2B2A3547F
:10353000EA1CD2B2E221A1542A1DD2B2A3546A1DC0
:10354000D2B2A354AA1DD2B2A354EA1DD2B2E5212D
:10355000A15405F10802D2B2A35405F10902D2B276
:10356000A35405F10A02D2B2A35405F10B02D2B260
:10357000E321A15405F10C02D2B20DF105010026A0
:10358000A35438680DF106020DF107030296ADF859
:103590000C60FCF755FF9DF8052005F10D03DBB22B
:1035A000E2549DF8062005F10E03DBB23879E254AF
:1035B000FCF778FF05F10F03DBB2E054387AFCF733
:1035C00071FF05F11003DBB2E054387BFCF76AFFB2
:1035D00005F111085FFA88F804F80800387CFCF758
:1035E00061FF05F11203DBB2E054387DFCF75AFFAE
:1035F00005F1140705F11303DBB2FFB2E054F91E25
:103600000DF1230084F80280FFF7DBFEE05505F1A1
:1036100016071535EDB20D2348484949635504F0A6
:1036200024FEFFB23546BD42444880F07981615D99
:10363000102204F0C2FE4148424904F016FE013552
:10364000F1E72070D02060702720A07018783E4FDE
:10365000E0705878472120719878DB786071A37109
:103660000623E37107F10800022369732372617274
:103670000292ADF80C2009F043F804A9C3B201AAE4
:1036800007F10800FCF750FF04A809F039F804A975
:10369000024602A8FCF710FF9DF80830A3729DF8BF
:1036A0000930E3729DF80A3023739DF80B30637381
:1036B0009DF80C30A37397F828300BB9E82302E08B
:1036C000012B03D1F823E373102600E00F2600231B
:1036D0001E480293ADF80C3009F012F804A9C3B2E9
:1036E00001AA1A48FCF720FF04A809F009F804A968
:1036F000024602A8FCF7E0FE9DF808309DF809207C
:10370000A355731CE2549DF80A20B31CE2549DF8A3
:103710000B20F31CE2549DF80C20331DE25497F863
:103720002930751DA3B9E72315E000BFB41E0020A2
:10373000301E0020981D0020C91D002060200020A0
:103740004E64010882670108D01E0020E81E002098
:10375000012B02D1F7236355B51D0026764802964A
:10376000ADF80C6008F0CCFF04A9C3B201AA7248FE
:10377000FCF7DAFE04A808F0C3FF04A9024602A879
:10378000FCF79AFE9DF808309DF8092063556B1CE4
:10379000DBB2E2549DF80A20AB1CDBB2E254EB1C16
:1037A000DBB2E2226548E2540296ADF80C6008F004
:1037B000A7FF04A9C3B201AA6048FCF7B5FE04A89C
:1037C00008F09EFF04A9024602A8FCF775FE9DF8CA
:1037D00008202B1DDBB2E2549DF809206B1DDBB2E3
:1037E000E2549DF80A20AB1DDBB2E254EB1DDBB2C4
:1037F000E5225348E2540296ADF80C6008F080FFD1
:1038000004A9C3B201AA4E48FCF78EFE04A808F032
:1038100077FF04A9024602A8FCF74EFE9DF8082097
:1038200005F10803DBB2E2549DF8092005F1090314
:10383000DBB2E2549DF80A2005F10A03DBB2E25440
:1038400005F10B03DBB2E322E25497F8882005F17F
:103850000C03DBB20DF10501E254F86A0DF106022A
:103860000DF107030296ADF80C60FCF7E9FD9DF839
:10387000052005F10D03DBB2E2549DF8062005F1A9
:103880000E03DBB297F83000E254FCF70BFE05F1B3
:103890000F03DBB2E05497F83400FCF703FE05F1A8
:1038A0001003DBB2E05497F83800FCF7FBFD05F19C
:1038B00011085FFA88F804F8080097F83C00FCF754
:1038C000F1FD05F11203DBB2E05497F84000FCF77C
:1038D000E9FD05F1140705F11303DBB2FFB2E05473
:1038E000F91E0DF1230084F80280FFF76AFDE05510
:1038F00005F116071535EDB20D2312481249FFB236
:10390000635504F0B2FCBE420E4809D2A15D1022FC
:1039100004F053FD0B480D4904F0A7FC0136F2E713
:103920000B4904F0BDFC21463A460A48FFF790FADD
:1039300048B0BDE8F08100BF201F0020341F0020E8
:10394000481F0020602000204E64010882670108A3
:1039500052640108A41C00202DE9F041714CACB068
:103960002378002B40F0DA806378002B40F0D6807B
:10397000A378002B40F0D280E778002F40F0CE8073
:1039800069496A4804F08CFCFE238DF8303002232C
:103990008DF83130237809218DF8333063780DF1BB
:1039A00033008DF83430A3788DF832108DF835302F
:1039B000E3783D468DF8363001238DF837305C4B87
:1039C0001A788DF838205A788DF839209A78DB7873
:1039D0008DF83A208DF83B30FFF7F3FC0D238DF87E
:1039E0003C00544903A88DF83D3004F09BFD52483B
:1039F000FEF73FFC002800F08E80002D40F08B8009
:103A00004A484E4904F031FC2E460DF1300818F8B2
:103A100006101022454804F0D0FC013643484849BE
:103A200004F023FC0E2EF0D14649404804F038FC47
:103A3000414841463246FFF70BFA4FF47A7005F0E1
:103A4000B1F83D48FFF76AF9002800DD95B1022F73
:103A50000BD93D49354804F023FC3748FFF7B2F84D
:103A600003A804F01DFD002059E04FF47A6005F032
:103A700099F8BCE73048FEF7E2FBC1B20029E0D07C
:103A800003A804F02EFE314909A804F04BFD03A859
:103A900009A904F0DEFE064609A804F001FD002E87
:103AA000CFD006A824490A2201AE04F0D1FC2B464F
:103AB00006A83146052204F0F1FE2B46F25C402AAE
:103AC00094BF303A373AE2540133042BF6D12049FF
:103AD00009A804F027FD06A909A804F069FE01461B
:103AE000124804F0D3FB09A804F0DAFC0D4802F0F8
:103AF00037FA20B1174B00221A70012507E002F0B7
:103B00007BFA013709481449FFB204F0C9FB06A843
:103B100004F0C6FC95E703A804F0C2FC01202CB019
:103B2000BDE8F081301E00205664010860200020AE
:103B300014000020C8600108A41C00204E64010885
:103B40008267010852640108D1640108A464010875
:103B5000AE640108951D0020BC64010838B5044618
:103B60000D460068094904F080FB2946206804F0EE
:103B70007CFB2068064904F078FB206803689B6999
:103B80009847BDE83840002005F00CB8D86001081F
:103B9000C660010870B5144986B000240546FFF7D9
:103BA000DDFF0094019428461049114A2346FEF790
:103BB000AAFD012818BF632014D129682C2203A86C
:103BC00004F046FC03A804F09AFF064603A804F09C
:103BD00067FC0094019428460649054A2346FEF7EF
:103BE00092FD304606B070BDF5640108FA64010824
:103BF0003E6B01084964010870B55C4E8CB03046DC
:103C0000FFF7C8FF012105461E2004F0B5FF1F2065
:103C1000002104F0B1FF5649564804F041FB5649D3
:103C2000544804F022FB0A222946524804F0ADFB16
:103C3000002430465149FFF791FF0094019430462B
:103C40004F49504A2346FEF75EFD012804D003A8E1
:103C50004D4904F067FC16E009A831680A2204F017
:103C6000F7FB4A49474A2346009401943046FEF741
:103C70004AFD09A804F019FF03A809A904F001FCF2
:103C800009A804F00DFC424909A804F04BFC03A963
:103C900009A804F08DFD354E0146364804F0F6FAC9
:103CA00009A804F0FDFB002430463A49FFF756FF0F
:103CB0000094019430463849324A2346FEF723FDEA
:103CC000012804D006A8304904F02CFC16E009A80D
:103CD00031680A2204F0BCFB2C492A4A234600948E
:103CE00001943046FEF70FFD09A804F0DEFE06A899
:103CF00009A904F0C6FB09A804F0D2FB06A92748CD
:103D000004F05DFC06A804F0CBFB254909A804F0EB
:103D100009FC224909A804F04BFD0146154804F0AE
:103D2000B5FA09A804F0BCFB1248174904F0B8FA28
:103D3000072D02D81B48012111E0A5F10803072B2C
:103D400002D8184802210AE0A5F11003072B02D877
:103D50001448032103E0172D03DD12480421FDF769
:103D6000E3FC03A804F09CFB0CB070BD4C1D0020CC
:103D700002650108602000203065010836650108F1
:103D8000C66001083E6B0108C8600108496401086B
:103D90003B6501084165010848650108241E0020B3
:103DA00052650108C81B002030B5304985B0002499
:103DB0000546FFF7D3FE0094019428462C492D4A6E
:103DC0002346FEF7A0FC012801D001204BE0284645
:103DD0002949FFF7C3FE274A234628490094019446
:103DE0002846FEF790FC28462549FFF7B7FE0094C9
:103DF0000194029428462349234A1E4BFEF7F0FB08
:103E0000012802D0214822492AE01C4A194B4FF4CC
:103E10007A710094019402942846FEF7E1FB28464B
:103E20001C49FFF79BFE0094019428461A49114A49
:103E30002346FEF768FC012802D0144817490FE01A
:103E400028461749FFF78AFE009401942846154931
:103E5000084A2346FEF757FC0128B6D00B48124902
:103E600004F01EFA204605B030BD00BF5B650108B6
:103E7000626501083E6B01086B6501084964010831
:103E800087650108084C0100926501086020002048
:103E90009C650108BC650108C9650108DA6501086F
:103EA000F365010800660108116601082DE9FF416C
:103EB000134B05461F680E469846D8F8003000247C
:103EC000DB1BB34217D228460E49FFF747FE00948A
:103ED000019402942846C8210B4A0C4BFEF780FB44
:103EE0000446012C4FF0640002D104F05BFE02E0B6
:103EF00004F058FEE1E7204604B0BDE8F08100BFC1
:103F0000BC210020C8600108496401083E6B01081B
:103F10001F4B2DE9F3411F6805460E469846D8F819
:103F20000030DB1BB3422CD2002428461949FFF78E
:103F300015FE0094019428461749184A2346FEF7B7
:103F4000E2FB012804D04FF47A7004F02BFEE6E780
:103F5000134B14498DE81800134A144B2846FEF7FA
:103F6000D2FB009406460194284611490B4A234689
:103F7000FEF7C9FB012E06D003D3032E01D8022081
:103F800002E0002000E0304602B0BDE8F08100BF52
:103F9000BC2100203A660108416601083E6B010819
:103FA000606601084A660108506601085866010803
:103FB000496401087FB542F210710546FFF776FFAC
:103FC00058B3002428462149FFF7C8FD0094019406
:103FD0000294284642F210711D4A1E4BFEF700FB68
:103FE00001281AD128461C49FFF7B8FD0094019416
:103FF0000294284642F21071154A164BFEF7F0FA69
:1040000001280AD140F6B83004F0CCFD284642F22F
:104010001071FFF74BFF064608B9002612E028464C
:104020000E49FFF79BFD0094019428460849094A70
:104030002346FEF768FB0128EFD1284642F21071B3
:10404000FFF766FF304604B070BD00BF6D66010823
:10405000496401083E6B0108756601087F66010826
:1040600070B5164986B000240546FFF777FD009429
:10407000019428461249134A2346FEF744FB0128BF
:1040800018BF042017D12846FFF7B2F929680A2281
:1040900003A804F0DDF903A804F031FD064603A8E7
:1040A00004F0FEF90094019428460749054A234686
:1040B000FEF729FBF0B206B070BD00BF5B650108DA
:1040C000626501083E6B010849640108F8B50446C1
:1040D0000D4600680E4916461F4604F0C6F82946EC
:1040E000206804F0C2F83146206804F0BEF8394672
:1040F000206804F0B5F82068064904F0B6F8206896
:1041000003689B699847BDE8F840002004F04ABD69
:10411000D8600108C66001082DE9F04300258FB082
:1041200004468946984990461F46FFF717FD974A6F
:10413000974B4EF660210095019502952046FEF7BB
:104140004FFA20469349FFF709FD9049904A2B46C4
:10415000009501952046FEF7D6FA20468E494A463C
:104160002223FFF7B3FF0095019520468749884A2F
:104170002B46FEF7C8FAB8F1000F0DD0204687494C
:1041800042462223FFF7A2FF0095019520467F4972
:104190007F4A2B46FEF7B7FA6FB1204680493A4670
:1041A0002223FFF793FF00230093019320467749D2
:1041B000774AFEF7A8FA764E0025204679494A4606
:1041C0002223FFF783FF32462B4670490095019565
:1041D0002046FEF798FA20467349FFF7BFFC6B4A6A
:1041E00033464EF660210095019502952046FEF774
:1041F000F7F920466D49FFF7B1FC644A33466C4934
:104200000095019502952046FEF7EAF92046694996
:10421000FFF7A4FC009501950295204647F2305126
:104220005A4A3346FEF7DCF9012801D00025EDE0BB
:1042300020466149FFF792FC0095019502952046C2
:104240004EF66021514A3346FEF7CAF90128EDD1F6
:1042500020465A49FFF782FC0095019520464B49BC
:1042600032462B46FEF74FFA0128DFD1204654494B
:10427000FFF774FC009501952046444932462B46D1
:10428000FEF741FA0128D1D120464E49FFF766FCDE
:104290000095019520463D4932462B46FEF733FAFC
:1042A0000128C3D14849206803F0DFFF474920684F
:1042B00003F0DBFF4946206803F0D7FF444920683C
:1042C00003F0D3FF4146206803F0CFFF4049206848
:1042D00003F0CBFF3946206803F0C7FF3D49206853
:1042E00003F0C3FF3C49206803F0BFFF2068036868
:1042F0009B699847284604F055FC00950195029566
:1043000020464EF66021214A3346FEF769F901281E
:104310008CD120463149FFF721FC0095019502958B
:1043200020464EF66021194A3346FEF759F9012816
:104330007FF47CAF20462A49FFF710FC294905A8E5
:1043400004F0F0F80096019502950395204642F29C
:10435000107105AA0D4BFEF709F8012844D008A8F2
:104360001D4904F0DFF80BA81E4904F0DBF805A88E
:1043700008A90BAA04F014FB0BA804F091F808A8F4
:1043800004F08EF83FE000BF85660108496401082B
:104390003E6B01086B6501088E660108A166010885
:1043A000B5660108C8660108DA660108E566010815
:1043B000084C010087650108F0660108F9660108EC
:1043C000036701080F670108D86001081B6701082F
:1043D000C4660108C6660108C660010823670108B3
:1043E0002A670108C860010820460A49FFF7B6FBA2
:1043F0002B4600950195204607493246FEF783F982
:10440000431E5D425D4105A804F04AF828460FB0FE
:10441000BDE8F083346701084964010838B53649BE
:10442000364803F03DFF642004F0BCFB012104206A
:1044300004F0A2FB642004F0B5FB1F20012104F06E
:104440009BFBFDF7ADFB00211F2004F095FB2C48E2
:10445000FFF7B0FD2B49294803F007FF642004F063
:10446000A1FB294B1C681D462A684EF65F23121BD0
:104470009A420BD82248FFF7F3FD00F0FB00012819
:1044800012D04FF47A7004F08DFBEDE71B481F4902
:1044900003F006FF1E4B1C7C24B901F073FE01F0F3
:1044A000D7FE27E0002425E01A49144803F0F8FE5F
:1044B0001949124803F0D9FE1849104803F0F0FEDC
:1044C0000F481649164A174BFFF726FE044678B9DF
:1044D0000A48154903F0E4FE0D4B1B7C1BB901F0A3
:1044E00051FE01F0B5FE11480521FDF71DF901E06F
:1044F000FFF782FB204638BD51670108602000208D
:104500004C1D00206B670108BC210020C967010811
:10451000B41E002006680108096801083664010815
:104520003D6B0108466B010884670108C81B002029
:1045300037B50024224621462346114D00941148E8
:1045400003F04EFE104B284610491C605C609C60D6
:104550001C739C73DC731C745C7403F0E3FF2846CB
:104560000B490C4A04F07CFC0B4B83F8514083F858
:1045700052400A4B83F8284083F8294003B030BDED
:10458000241E00208C1D0020B41E0020C8600108DD
:10459000A184000808000020981D0020D01E0020E3
:1045A0002DE9F04F8DB001F0BEFE074628B1AC4BAF
:1045B0001B68984288BF012700E0012772B64FF4BC
:1045C000A061A848FCF7CEF8A648FCF704F981469C
:1045D00062B6A549A54803F048FEA44849460A2208
:1045E00003F010FFDFF89C82A048B9F1000F0AD059
:1045F0009B4B1B68994506D29D4903F051FE012350
:1046000088F80E301DE09B4903F04AFE002388F82D
:104610000E304FF0010914E0974903F041FE97492D
:104620002A789748FEF714FC01374FF47A7004F0AB
:10463000B9FA384601F066FE924B9B7B002B00F0E6
:104640002D864F4500F22A8698F80E305BB172B67F
:104650004FF4A0618348FCF785F839468A4A8148BF
:10466000FCF792F862B689498048874E03F0FDFD59
:104670000A2239467D4803F0B2FE85497B4803F0A3
:10468000F4FD0A227169794803F076FE8149774882
:1046900003F0EBFD0A223169744803F06DFE7D4999
:1046A000724803F0E2FD0A22F168704803F064FEEC
:1046B00079496E4803F0D9FD0A22B1686B4803F0CE
:1046C0005BFE7649694803F0D0FD0A2271686748AD
:1046D00003F052FE7149654803F0C7FD31680A22B4
:1046E000624803F052FE6648FDF7C3FD0446002809
:1046F00000F0E58598F80C30012B09D168495B483A
:1047000003F0CEFDFEF786FE4FF47A7004F04AFA0D
:104710006449564803F0C4FD5448634C03F02CFC34
:104720000021142207A8069107F086FBFE232370C0
:10473000CB2363705423A3705C4B5D4D1A78B06D2E
:10474000E2705A7822719A78DB786271A37108233B
:104750002B700623E3714FF6FE7398420AD94A4B39
:1047600093F85C30012B05D0FF230A2223722A70B4
:10477000637218E096F85C30012B08BFC0F58030FA
:1047800006F000FA04220146022306A8FBF7F2FE17
:104790002B789DF81820E2549A1C2A7001339DF85A
:1047A0001920DBB2E25496F85C30D6F854A0012B05
:1047B0002B78504603F101022A700CBFF222E2224C
:1047C000E2540023069306F0FBFB4FF6FE7398427B
:1047D00007DD2B78FF22991CE25401332970DBB2EC
:1047E0000FE00422022306A85146FBF7C3FE2B78F4
:1047F0009DF81820E2549A1C2A7001339DF8192064
:10480000DBB295F800A0E254E2220AF10103DBB228
:1048100004F80A200021142207A82B7006910193A6
:1048200007F00AFB326E2349DFF884B08A421E4D3E
:10483000019B41D9FF22EA540AF10203DBB2EA5498
:104840000AF10303DBB2EA540AF105030AF1040A90
:104850005FFA8AFA8BF8003005F80A204FE000BFB3
:1048600018000020E01F00201868010860200020C8
:104870002A6801083D68010852640108601F002091
:10488000A41C0020B41E0020D81B0020546801087E
:10489000676801083060010881670108DF6201086C
:1048A0007D68010896680108341E0020301E002033
:1048B000941D0020400D0300C54907A807F004FD22
:1048C00007A807F01DFF07A9024606A8FBF7F4FD9D
:1048D0009BF800309DF818209DF81910EA545A1CD6
:1048E000D2B2A9549A1C9DF81A10D2B2A9541A1D1A
:1048F0008BF8002003339DF81B20DBB2EA54B54C43
:10490000B54D23784FF0000A5A1C2270E022EA5479
:104910005146142207A8CDF818A007F08DFAAC492B
:10492000726E07A807F0D0FC07A807F0E9FE07A9F8
:10493000024606A8FBF7C0FD22789DF818309DF8C6
:104940001910AB54531CDBB2E9549DF81A10931C98
:10495000DBB2E9549DF81B10D31CDBB2E954131DE4
:10496000DBB2E220E854306F511D4FF6FE73C9B23E
:1049700098422170CDF818A007DDFF236B54D11D9C
:104980000632D2B22170AB5412E006F0FBF80422DA
:104990000146534606A8FBF7EDFD23789DF8182045
:1049A000EA549A1C227001339DF81920DBB2EA54B4
:1049B0002378E021E9545A1CB16FD2B22270084624
:1049C00002910392019306F021FB4FF6FE7E7045A3
:1049D000DFF800B2DFF800A20299039A019B0AD91E
:1049E000FF210AF80210DA1C0233DBB28BF8002038
:1049F0000AF8031013E00422012306A8FBF7BAFD0E
:104A00009BF800309DF818200AF803209A1C8BF8B8
:104A1000002001339DF81920DBB20AF80320237827
:104A2000E122F06F591CEA544FF6FE72C9B290426F
:104A3000DFF8A0B12170DFF8A0A108D9FF220AF8A1
:104A40000120D91C02338BF80010DBB214E006F011
:104A500099F804220146002306A8FBF78BFD9BF87A
:104A600000309DF818200AF803209A1C8BF80020CB
:104A700001339DF81920DBB2F06E0AF803204FF6DF
:104A8000FE73984207D92378FF22991CEA54013318
:104A90002170DBB211E006F075F804220146002314
:104AA00006A8FBF767FD23789DF81820EA549A1CA6
:104AB000227001339DF81920DBB2EA542378E022FA
:104AC000706F591CEA544FF6FE72C9B29042DFF87B
:104AD00004B12170DFF800A108D9FF220AF80120F3
:104AE000D91C02338BF80010DBB214E006F04AF850
:104AF00004220146002306A8FBF73CFD9BF800308A
:104B00009DF818200AF803209A1C8BF80020013326
:104B10009DF81920DBB20AF803202378E021E9543C
:104B2000D6F88800002103F1010E06914FF6FE71C0
:104B30005FFA8EFE884284F800E0274A10D92749A0
:104B400091F88C1001290BD0FF2102F80E1021489A
:104B500003F1030E0233DBB280F800E0D15418E019
:104B600096F88C30012B08BFC0F5803006F00AF8AB
:104B700004220146022306A8FBF7FCFC23789DF8DB
:104B80001820EA549A1C227001339DF81920DBB2D8
:104B9000EA5496F88C30D6F890A0012B2378504632
:104BA00003F1010222700CBFF222E222EA54002338
:104BB000069306F005FA4FF6FE73984210DD23784F
:104BC000FF22991CEA5401332170DBB218E000BFC8
:104BD000C0680108941D0020341E0020D81B00204E
:104BE0000422022306A85146FBF7C4FC23789DF853
:104BF0001820EA549A1C227001339DF81920DBB268
:104C000094F800A0EA54E2220AF10103DBB205F8AD
:104C10000A200021142207A823700691019307F0AF
:104C20000BF9D6F88020C249DFF810B38A42C14C94
:104C3000019B14D9FF22E2540AF10203DBB2E254D1
:104C40000AF10303DBB2E2540AF105030AF1040A94
:104C50005FFA8AFA8BF8003004F80A2022E0B6499D
:104C600007A807F031FB07A807F04AFD07A902468D
:104C700006A8FBF721FC9BF800309DF818209DF852
:104C80001910E2545A1CD2B2A1549A1C9DF81A1061
:104C9000D2B2A1541A1D8BF8002003339DF81B20BB
:104CA000DBB2E254A54CA34D23784FF0000A5A1C06
:104CB0002270E022EA545146142207A8CDF818A029
:104CC00007F0BAF89C49D6F8842007A807F0FCFA48
:104CD00007A807F015FD07A9024606A8FBF7ECFB9D
:104CE00022789DF818309DF81910AB54531CDBB294
:104CF000E9549DF81A10931CDBB2E9549DF81B107F
:104D0000D31CDBB2E954131DDBB2E220E854D6F821
:104D10009400511D4FF6FE73C9B298422170CDF830
:104D200018A007DDFF236B54D11D0632D2B22170CB
:104D3000AB5412E005F026FF04220146534606A8B4
:104D4000FBF718FC23789DF81820EA549A1C22706F
:104D500001339DF81920DBB2EA542378E022D6F81B
:104D60009800591CEA544FF6FE72C9B29042DFF81F
:104D7000CCB12170DFF8BCA108D9FF220AF80120CC
:104D8000D91C02338BF80010DBB214E005F0FAFEF8
:104D900004220146002306A8FBF7ECFB9BF8003039
:104DA0009DF818200AF803209A1C8BF80020013384
:104DB0009DF81920DBB20AF803202378E022D6F808
:104DC0009C00591CEA544FF6FE72C9B29042DFF8BB
:104DD0006CB12170DFF85CA108D9FF220AF801202C
:104DE000D91C02338BF80010DBB214E005F0CAFEC8
:104DF00004220146002306A8FBF7BCFB9BF8003009
:104E00009DF818200AF803209A1C8BF80020013323
:104E10009DF81920DBB20AF803202378E021E95439
:104E2000B06A002103F1010E06914FF6FE715FFAA0
:104E30008EFE884284F800E03E4A10D9404991F83D
:104E40002C1001290BD0FF2102F80E103B4803F172
:104E5000030E0233DBB280F800E0D1541BE096F879
:104E60002C30012B08BFC0F5803005F08BFE354992
:104E700005F094FF04220146022306A8FBF77AFB03
:104E800023789DF81820EA549A1C227001339DF86B
:104E90001920DBB2EA5496F82C30D6F824A0012B66
:104EA0002378504603F1010222700CBFF222E22265
:104EB000EA540023069306F083F84FF6FE739842F7
:104EC00007DD2378FF22991CEA5401332170DBB2FD
:104ED0000FE00422022306A85146FBF74BFB237880
:104EE0009DF81820EA549A1C227001339DF819206D
:104EF000DBB2EA542278306BE223511C4FF6FE7E7F
:104F0000C9B2AB5470454FF00003DFF830B02170E8
:104F1000DFF820A0069317D9FF230AF80130D11C2F
:104F20000232D2B28BF800100AF8023024E000BF3F
:104F3000400D0300341E0020C0680108941D0020AD
:104F4000D81B002000002041019305F01BFE042225
:104F50000146019B06A8FBF70DFB9BF800309DF86E
:104F600018200AF803209A1C8BF8002001339DF8C2
:104F70001920DBB20AF803202278706BE023511C61
:104F80004FF6FE76C9B2AB54B0424FF00003DFF8E3
:104F90008CB32170DFF888A306930AD9FF230AF89F
:104FA0000130D11C0232D2B28BF800100AF8023064
:104FB00017E0019305F0E6FD04220146019B06A8D7
:104FC000FBF7D8FA9BF800309DF818200AF8032068
:104FD0009A1C8BF8002001339DF81920DBB20AF8E7
:104FE00003202378C84EE022EA549A1C2270013331
:104FF00096F83C20DBB20B20EA54FCF755FD0DF18E
:1050000015010DF116020DF11703FBF719FA2378BC
:105010009DF81520BD48EA549A1C227001339DF872
:105020001620DBB2EA54FEF7B5FD0DF115010DF1C6
:1050300016020DF11703FBF703FA23789DF81520EC
:105040000DF11501EA549A1C227001339DF81620C7
:10505000DBB2EA5470690DF116020DF11703FBF78C
:10506000EFF994F800A09DF815309DF8162005F88A
:105070000A300AF10103DBB2EA54307C0AF103037F
:105080002370FBF70FFA0AF1020A5FFA8AFA05F8B1
:105090000A0094F800A0307B0AF101032370FBF7AB
:1050A00001FA05F80A0094F800A0307A0AF1010329
:1050B0002370FBF7F7F905F80A0094F800A030799F
:1050C0000AF101032370FBF7EDF905F80A0094F8E3
:1050D00000A030780AF101032370FBF7E3F921788F
:1050E00005F80A0003398A48A970FEF76AF923789F
:1050F0008849E8549A1C01332270DBB20D2286489D
:10510000EA5403F0B2F80024844D83482B789C4283
:105110000AD2834B1022195D03F04FF97E48814972
:1051200003F0A3F80134EFE77F4903F0B9F82A78D8
:105130007B497E48FDF78CFE4FF47A7003F032FD18
:105140007B4975487B4D03F0ABF8734802F014FFC0
:10515000FE232B70C1236B701823AB70764B774CFA
:105160001A78EA705A782A719A78DB786A71AB718A
:105170000722734B227007AA1046196807F062FADB
:1051800000230246AE46D15CA1F13000C0B209282E
:105190008ABF5739D054D1540133142BF3D123781B
:1051A0004FF0000A02EB0A0003EB0A01C0790AF192
:1051B000010AC9B2BAF10D0F5E4D0EF80100F1D12E
:1051C0000D330DF11601237070690DF1170206AB56
:1051D000FBF736F994F800B09DF816309DF81720CB
:1051E00005F80B300BF10103DBB2EA54307C0BF114
:1051F00003032370FBF756F90BF1020B5FFA8BFBED
:1052000005F80B0094F800B0307B0BF1010323701C
:10521000FBF748F905F80B0094F800B0307A0BF171
:1052200001032370FBF73EF905F80B0094F800B07A
:1052300030790BF101032370FBF734F905F80B000B
:1052400094F800B030780BF101032370FBF72AF9D2
:10525000217805F80B000339E81CA970FEF7B1F8B6
:1052600023782C49E8549A1C0133DBB22A48227077
:1052700005F803A002F0F9FF0024304D26482B78F2
:105280009C42BFF4C9A92B4B1022195D03F095F87D
:105290002148244902F0E9FF0134EEE772B698F89C
:1052A0000E308BB1FCF7F0FB4FF4A0612548FBF703
:1052B00059FA2448FBF791FAFCF7F0FB04E01B488D
:1052C000FDF780FC20461BE01F4801F00AF9D8F8E2
:1052D00004304AF684023C3B9342014602D91B4B00
:1052E000B4225A60D8F804301748194401F006F97E
:1052F00062B6012001F006F80C48FDF763FC0120BE
:105300000DB0BDE8F08F00BFD81B00204C1D002061
:10531000371E00204E64010860200020941D0020EC
:10532000341E00208267010852640108A41C00207A
:10533000C6680108601F0020301E0020201E0020CB
:10534000241E0020E01F0020C91B0020B41E0020E6
:1053500010B51248124902F0A3FF1248FCF789FF6A
:1053600060B1FFF71DF904460F490C481CB102F06B
:1053700097FF012010BD02F093FF0DE007480B4995
:1053800002F08EFF0A4B1B7C1BB900F0FBFE00F005
:105390005FFF0448FDF716FC002010BD60200020D0
:1053A000E5680108A41C0020C86001081469010810
:1053B000B41E0020F0B5A7B007A8984903F0B2F8D2
:1053C0009748FCF756FF002800F07883954D6B7CDA
:1053D000002B40F073839248FDF7A0FC0028EFDD1E
:1053E0006E7C002EECD18E48FCF729FFC1B200295B
:1053F000F1D007A803F075F98B4919A803F092F8CA
:1054000007A819A903F025FA044619A803F048F8DB
:10541000002CE0D00A220AA8814903F019F87F493C
:105420000DA803F07FF80B22314604A806F004FD16
:105430007E4919A803F076F80AA919A803F0B8F96B
:1054400001467B4802F022FF19A803F029F87848AA
:1054500002F092FD774916A803F064F816A90AA88D
:1054600003F051FA324603460AA919A803F072FA6A
:1054700019A90DA803F0A3F819A803F011F816A8AC
:1054800003F00EF80DA804A90B22334603F006FA28
:105490009DF810309DF81300303BC3EB431103EB34
:1054A00081039DF811109DF812203039303801EB3E
:1054B000810100EBC30301EB8101303A5E4C03EB49
:1054C000810102EB820201EB42029DF81530E2807D
:1054D0009DF81620303B303A03EB830302EB430385
:1054E00063719DF818309DF81920303B303A03EB7A
:1054F000830302EB430331460B2204A8237106F019
:105500009BFC4E4919A803F00DF80DA919A803F04A
:105510004FF90146464802F0B9FE19A802F0C0FF53
:10552000434802F029FD434916A802F0FBFF16A9E3
:105530000AA803F0E8F90C9B421C0AA919A803F079
:1055400009FA19A90AA803F03AF819A802F0A8FF65
:1055500016A802F0A5FF374916A802F0E3FF16A926
:105560000AA803F0D0F9324603460AA919A803F0A5
:10557000F1F919A90DA803F022F819A802F090FF7B
:1055800016A802F08DFF0B2233460DA804A903F0E4
:1055900085F92B4919A802F0C5FF0DA919A803F038
:1055A00007F90146224802F071FE19A802F078FFBF
:1055B0001F4802F0E1FC9DF810309DF81120303BAF
:1055C000303A03EB830302EB4303A3709DF81330DF
:1055D0009DF81420303B303A03EB830302EB430386
:1055E00063709DF816309DF81720303B303A03EB7E
:1055F000830302EB430320462370FAF75FFE014664
:10560000104800F06BFFA3780F2B1DD163783B2B64
:105610001AD8044B01221A7318E000BFC8600108B1
:10562000A41C0020B41E002040690108486901083C
:1056300060200020EC600108CA1B00205B690108A3
:1056400071690108C91B002000232B739F4800F0DB
:1056500048FF01469E48FAF7A5FD2179E288637963
:105660000091A17819A801916178029121780391A4
:10567000984906F029FE19A9974802F011FE9749AA
:1056800013A802F04FFF13A90AA803F03CF90C9BE2
:10569000421C0AA916A803F05DF916A90AA802F08F
:1056A0008EFF16A802F0FCFE13A802F0F9FE8B494B
:1056B00013A802F037FF13A90AA803F024F9002267
:1056C00003460AA916A803F045F916A90DA802F089
:1056D00076FF16A802F0E4FE13A802F0E1FE0DA882
:1056E00003F00DFA7E49286016A802F01BFF0DA9F1
:1056F00016A803F05DF80146774802F0C7FD16A82A
:1057000002F0CEFE744802F037FC2B684AF68402A1
:105710003C3B934202D9734BB4221A606F4913A8E1
:1057200002F000FF13A90AA803F0EDF80C9B421C3D
:105730000AA916A803F00EF916A90AA802F03FFF5D
:1057400016A802F0ADFE13A802F0AAFE634913A842
:1057500002F0E8FE13A90AA803F0D5F800220346D8
:105760000AA916A803F0F6F816A90DA802F027FF5B
:1057700016A802F095FE13A802F092FE0DA803F001
:10578000BEF95949686016A802F0CCFE0DA916A80A
:1057900003F00EF80146504802F078FD16A802F01A
:1057A0007FFE4D4802F0E8FB6B684AF684023C3B02
:1057B000934202D94B4BB4225A60484913A802F0D5
:1057C000B1FE13A90AA803F09EF80C9B421C0AA97B
:1057D00016A803F0BFF816A90AA802F0F0FE16A852
:1057E00002F05EFE13A802F05BFE3C4913A802F033
:1057F00099FE13A90AA803F086F8002203460AA915
:1058000016A803F0A7F816A90DA802F0D8FE16A84E
:1058100002F046FE13A802F043FE0DA803F06FF954
:105820003249A86016A802F07DFE0DA916A802F064
:10583000BFFF0146284802F029FD16A802F030FEFD
:10584000254802F099FB254913A802F06BFE13A925
:105850000AA803F058F80C9B421C0AA916A803F0EA
:1058600079F816A90AA802F0AAFE16A802F018FEF6
:1058700013A802F015FE00210AA803F001F803782E
:105880001B4916A86B7302F04DFE0AA916A802F078
:105890008FFF0146104802F0F9FC16A802F000FE46
:1058A0000D4802F069FB2E7B0E4C012E40F0DC808F
:1058B000E37B3BBB0F48FEF777FA07460648EFB19C
:1058C0000D4902F0EDFCE6731CE000BFC91B00208F
:1058D000CA1B00208769010860200020EC600108D5
:1058E000AD690108B41E0020C0690108D069010833
:1058F000DB6901084C1D0020E6690108724902F0CD
:10590000CFFCE773EB7B002B00F0AE806F4B5B7B33
:105910004C2B55D16E4E6F4910A802F003FE0024A7
:1059200030466D49FEF71AF900940194029430460E
:105930006A496B4A6B4BFCF753FE012804D013A84D
:10594000644902F0EFFD16E016A831680A2202F061
:105950007FFD6549634A2346009401943046FCF775
:10596000D2FE16A803F0A1F813A816A902F089FD2B
:1059700016A802F095FD13A910A802F020FE13A8A6
:1059800002F08EFD594916A802F0CCFD10A916A808
:1059900002F00EFF0146564802F078FC16A802F00D
:1059A0007FFD002310A916A8EB7302F0FEFD16A8D8
:1059B0005049FAF77DFF16A802F072FD10A851E0D9
:1059C000472B51D1424E4C493046FEF7C7F80024D0
:1059D000642003F0E7F80094019430464749414AB7
:1059E0002346FCF790FE012808D04549404802F0C4
:1059F00057FC13A8374902F095FD16E016A8316848
:105A00000A2202F025FD3849364A234600940194C3
:105A10003046FCF778FE16A803F047F813A816A93D
:105A200002F02FFD16A802F03BFD364916A802F041
:105A300079FD13A916A802F0BBFE01462C4802F01E
:105A400025FC16A802F02CFD13A916A802F0ADFD46
:105A50002D4916A8FBF7DAF816A802F021FD00235D
:105A6000EB7313A802F01CFD1A49214802F018FC40
:105A700026491F4802F014FC1D4802F07DFA00F090
:105A80006BFC08B100F0B8FC2149194802F008FC91
:105A9000174802F071FA01231E4915486B7402F091
:105AA000FFFB134802F068FA642003F07BF80DA8AE
:105AB00002F0F6FC0AA802F0F3FC8CE407A802F05E
:105AC000EFFC27B0F0BD00BFF6690108B41E00204E
:105AD0004C1D0020C8600108086A0108084C01003C
