:020000040800F2
:100000000000012039690008216C0008256C0008F7
:10001000296C00082D6C0008316C0008816C000808
:10002000816C0008816C0008816C0008816C0008FC
:10003000816C0008816C0008816C0008F97600086A
:10004000816C0008816C0008816C00083967000829
:10005000816C0008816C0008816C0008816C0008CC
:10006000816C0008816C0008816C0008816C0008BC
:10007000816C0008816C0008816C0008816C0008AC
:10008000816C0008816C0008F96C0008816C000824
:10009000816C0008816C0008816C0008816C00088C
:1000A000C1790008E5790008097A0008417A00085A
:1000B000957A0008057B0008757B000861740008CC
:1000C000797400086D74000885740008816C00085C
:1000D000816C0008857E0008D97E00082D7F00080D
:1000E000816C000881670008816C00089D7C000815
:1000F000C17C0008E57C00081D7D0008496D0008F2
:10010000816C0008816C0008E57B0008816C0008A8
:10011000817F0008D57F0008557C0008797C0008A5
:10012000816C0008816C0008816C0008816C0008FB
:1001300010B5054C237833B9044B13B10448AFF321
:1001400000800123237010BD9017002000000000E4
:10015000E41A010808B5064B1BB106480649AFF37F
:1001600000800648036813B1054B03B1984708BDEA
:1001700000000000E41A01089417002090170020E6
:1001800000000000012902D11C30C0B270470629CE
:1001900084BF01F1FF31C9B211F0010F14BF1E205D
:1001A0001F207047444B2DE9F047B1FBF3F603FBEA
:1001B00016113C23B1FBF3F203FB12120546027049
:1001C0004FF46160B1FBF0F200FB1211B1FBF3F3ED
:1001D0006B704FF4FA63AA70B6B2EB80EC884FF400
:1001E000C873B4FBF3F803FB18481FFA88F8B8F19A
:1001F000000F16D06423B4FBF3F203FB12439BB24F
:10020000002B53D014F0030140F26D130CBF4FF4D8
:10021000B7721A4696420EDB002908BF4FF4B77337
:1002200004E0B6F5B77F06DB4FF4B773F61A013476
:10023000B6B2EC80D2E700236B716423B4FBF3F712
:1002400003FB1747BFB2B8F1000F06D03FB114F05F
:10025000030F14BF0020012002E0012000E0384617
:1002600095F80590C0B24946FFF78CFF864209F128
:10027000010A15D3B8F1000F06D03FB114F0030FF7
:1002800014BF0020012002E0012000E03846C0B287
:100290004946FFF777FF301A86B285F805A0D2E706
:1002A00001362E7185F805A0BDE8F087B6F5B67F5A
:1002B000C1DD40F26D13B9E780510100F8B5427815
:1002C00087783C2303FB072702780579467903FBEF
:1002D0000727013D013EEDB2F6B2044605714671B5
:1002E000013E731CE38834D04FF4C872B3FBF2F1C3
:1002F00002FB113292B262B16422B3FBF2F002FB54
:10030000103080B230B113F0030F14BF0020012071
:1003100000E00120C0B2F1B2FFF734FF284485B2FB
:10032000DEE74FF4C872B3FBF2F102FB113292B276
:10033000AAB16422B3FBF2F102FB113292B28AB18C
:1003400013F0030F40F26D1208BF4FF4B77215445B
:10035000ADB2013B9BB2B3F5FA6FE2D205E04FF4C8
:10036000B772F4E740F26D12F1E7024800FB057046
:10037000F8BD00BF8051010010B504462CB14FF408
:100380007A7008F047FD013CF8E710BD10B5172161
:1003900004461622024802F021FF204610BD00BF8D
:1003A000B017002070B50F4C0E4640F4A001054672
:1003B000C1F30741204602F0A4FFC5F30721204600
:1003C00002F0B0FFE9B2204602F0ACFF3146204611
:1003D00002F0A8FF204602F0A0FFBDE87040052013
:1003E000FFF7CABFB017002070B5114C40F4A0064B
:1003F000C6F3074605463146204602F082FFC5F3A4
:100400000721204602F08EFFE9B2204602F08AFF63
:10041000204602F082FF20463146012202F086FF8C
:10042000207A20B12046BDE8704002F08DBF70BD3B
:10043000B01700200148FFF7A9BF00BFAC1700208C
:10044000002870B503DA01241C70404201E000244A
:100450001C7042F20F73984202DD99230B701DE06D
:100460004FF47A750E4B90FBF5F503FB05036424FE
:1004700093FBF4F404F00F0646EA05150D70E4B2A0
:100480006FF0630101FB04340A2390FBF3F103FBDB
:10049000110094FBF3F4E4B240EA0413137070BD4E
:1004A00018FCFFFF0A22B0FBF2F302FB130040EA44
:1004B0000310C0B270470000D30770B548BF0132C7
:1004C0000024520802312346E5B2954225D211F8A4
:1004D000025CA5F14106F6B2052E02D8104B9B5DD9
:1004E00005E0303DEDB2092D03D80E4B5B5D1B01DD
:1004F000DBB211F8015CA5F14106F6B2052E01D878
:10050000074D04E0303DEDB2092D02D8054E755D72
:100510002B43035502310134D6E7002070BD00BFE4
:10052000DA320108D03201082DE9F04781460F4642
:1005300092460CF03DFA0023C0B21D46DEB219F817
:1005400006402E2C0FD02C2C05D1013EC8EB060600
:100550008AF8006008E014B97C55BDE8F0876A1C91
:100560007C55D5B200E0B0460133DAB28242E5D91B
:10057000BDE8F0872DE9F04F824687B00846144663
:1005800099460AF01BF8C9EB0406CDE90001304694
:100590000AF002F802460B4600204D4908F0BEFD65
:1005A00002460B46DDE900010AF0E2FA30B94FF0ED
:1005B000020896FBF8F80546013E07E05046002188
:1005C000224607B0BDE8F04F0BF08EBD454536DA48
:1005D000304609F0E1FF02460B4600203C4908F096
:1005E0009DFDCDE90201701E09F0D6FF02460B46C3
:1005F0000020374908F092FDDDE90223CDE904012E
:10060000DDE900010AF058F90AF0C6FADDE9042331
:100610000A2790FBF7FB0BFB17004FEA001BDDE9F5
:1006200000010AF049F90AF0B7FA90FBF7F303FB6F
:10063000170083440AF805B0023E0135C6E709EB0E
:1006400048094FF0020BC4EB090994FBFBFB09F1CD
:100650000109D84538DA484609F09EFF02460B46A4
:1006600000201B4908F05AFD064609F101000F461B
:1006700009F092FF02460B460020154908F04EFD96
:1006800032463B4604460D46DDE9000109F0EAFF2B
:100690000AF082FA0A2690FBF6F707FB16002B46B3
:1006A00007012246DDE9000109F0DCFF0AF074FAD7
:1006B00090FBF6F303FB160007440AF8087009F1F3
:1006C000020908F10108C4E707B0BDE8F08F00BFD8
:1006D000000024402DE9F84307460D46904601EB03
:1006E00003090C464C4507D0C5EB08032046195DAD
:1006F000BE68B0470134F5E7BDE8F8832DE9F04165
:1007000006460D46174601EB03080C46444506D045
:100710002046F16888477B1B18550134F6E7BDE891
:10072000F081016800F110021023FFF7D3BF0168C8
:1007300000F110021023FFF7E1BF8160C260704733
:1007400010B5016010314160DB21017400210446C5
:1007500041618361C261FFF7E4FF207CDB3818BF91
:10076000012010BD08B5016010314160FFF7DFFFC7
:10077000002008BD10B583694468013903FB0141BD
:10078000FFF7A8FF002010BD10B559B14369994289
:1007900008D883694468013903FB0141FFF7AEFFC4
:1007A000002010BD022010BD38B543690A46591C0F
:1007B000C3690446A3F110058369B5FBF3F39942BD
:1007C00007D84161FFF7D6FF2046FFF7AAFF0020B8
:1007D00038BD032038BD4069704710B50446FFF7A7
:1007E000A6FF20462168E269A369BDE81040FFF733
:1007F000A7BF436910B501333B2B01DC43610BE01C
:100800000269002301323B2A436101DC026103E0FB
:100810000361C3680133C360C36803F10802172A88
:1008200001DCC26010BD103BC3604368826823F0E6
:10083000040101320229826005D0042B03D023F089
:100840000201092901D11E2A00E01F2A03DD01222D
:100850001344826043600368826813F0030F16D16B
:100860004FF4C87193FBF1F401FB143129B16421F9
:1008700093FBF1F401FB143149B11D2A09DD4268F3
:10088000022A06D1012282600322426001E01C2A72
:10089000F4E742680C2A03DD0C3A0133426003603E
:1008A00010BD10B58B68044608F07EF9204610BDD7
:1008B00070B58CB004460D4603A8264907F05CFFCE
:1008C0002046002108F006F903784E2B07D1204678
:1008D000012108F0FFF803784F2B00F08F811E49AB
:1008E00006A807F049FF06A9204608F036F90022BD
:1008F0000346214609A808F057F909A903A807F0FB
:1009000088FF09A807F0F6FE06A807F0F3FE03A883
:1009100008F01FFA104906A807F02EFF06A9204686
:1009200008F01BF92146421C09A8FFF7BAFF09A9E4
:10093000204607F06EFF09A807F0DCFE06A807F0C6
:10094000D9FE2046002108F0C5F803782D2B05D1EB
:10095000012604E0D17801085C640108002685F8CE
:100960005260A94906A807F007FF06A9204608F02B
:10097000F4F832460346214609A808F015F909A9FA
:1009800003A807F046FF09A807F0B4FE06A807F081
:10099000B1FE059A0023013205F1310103A808F0E8
:1009A000A7F803A808F0DAF99749E86106A807F064
:1009B000E3FE06A9204608F0D0F82146421C09A80B
:1009C000FFF76FFF09A9204607F023FF09A807F0EA
:1009D00091FE06A807F08EFE0021204608F07AF866
:1009E000037889492D2B0CBF0126002685F851601C
:1009F00006A807F0C1FE06A9204608F0AEF8324668
:100A00000346214609A808F0CFF809A903A807F072
:100A100000FF09A807F06EFE06A807F06BFE059A16
:100A20000023013205F1210103A808F061F803A8B1
:100A300008F094F97449A86106A807F09DFE06A97C
:100A4000204608F08AF82146421C09A8FFF729FF32
:100A500009A9204607F0DDFE09A807F04BFE06A80D
:100A600007F048FE684906A807F086FE06A920465A
:100A700008F073F800220346214609A808F094F80C
:100A800009A903A807F0C5FE09A807F033FE06A8C8
:100A900007F030FE03A808F05CF95B49C5F8800058
:100AA00006A807F069FE06A9204608F056F8214678
:100AB000421C09A8FFF7F5FE09A9204607F0A9FE88
:100AC00009A807F017FE06A807F014FE4E4906A86D
:100AD00007F052FE06A9204608F03FF80022034620
:100AE000214609A808F060F809A903A807F091FEBB
:100AF00009A80A2607F0FEFD06A807F0FBFD32460E
:100B0000002168460BF0F0FA03A869460922002389
:100B100007F0EEFF9DF800309DF80120303B06FB0A
:100B2000032303F5F4632B609DF803209DF8043044
:100B3000303A303B06FB02339DF806206B609DF88F
:100B40000730303A303B06FB02332F49AB6006A832
:100B500007F012FE06A9204607F0FFFF2146421CBF
:100B600009A8FFF79EFE09A9204607F052FE09A832
:100B700007F0C0FD06A807F0BDFD234906A807F051
:100B8000FBFD06A9204607F0E8FF002203462146A8
:100B900009A808F009F809A903A807F03AFE09A86E
:100BA00007F0A8FD06A807F0A5FD0021092209A865
:100BB0000BF09AFA03A80922002309A907F098FF6D
:100BC0009DF824209DF82530303A303B06FB023357
:100BD0009DF82720EB609DF82830303A303B06FB2B
:100BE00002339DF82A202B619DF82B30303A303BA0
:100BF00006FB023628466E61FFF7FBFD03A807F0EF
:100C000079FD0CB070BD00BF5C64010870B58EB09A
:100C100004460D4601A88E4907F0AEFD204600218E
:100C200007F058FF0378312B06D12046022107F048
:100C300051FF0378312B01D0002446E2854907A8F3
:100C400007F09AFD07A90022204607F077FF0AAEB9
:100C5000421C21463046FFF724FE3146204607F06D
:100C6000D8FD304607F046FD07A807F043FD794957
:100C700007A807F081FD07A90022204607F05EFFC4
:100C80002146421C3046FFF70CFE3146204607F055
:100C9000C0FD304607F02EFD07A807F02BFD6D497B
:100CA00007A807F069FD07A90022204607F046FFC4
:100CB000002203462146304607F076FF314601A860
:100CC00007F0A7FD304607F015FD07A807F012FD55
:100CD000039A002301A83146013207F009FF0023DF
:100CE000F25C303AF25401330E2BF9D19DF82930E1
:100CF000642253439DF828104FF47A7202FB0132AC
:100D00009DF82A100A2303FB01229DF82B1004A84A
:100D10000A44EA629DF82C109DF82D2003FB012265
:100D20009DF82E102A639DF82F2003FB01229DF8C9
:100D300030106A639DF8312003FB01229DF83210C8
:100D4000AA639DF8332003FB01229DF83410EA6367
:100D50009DF8352003FB01233E492B6407F00CFD71
:100D600004A90022204607F0E9FE2146421C07A8FC
:100D7000FFF797FD07A9204607F04BFD07A807F0EE
:100D8000B9FC04A807F0B6FC2046002107F0A2FE3B
:100D900003782D2B0AD101262E4985F8286004A856
:100DA00007F0EAFC204604A9002209E000262949B0
:100DB00085F8286004A807F0DFFC204604A9324625
:100DC00007F0BCFE32460346214607A807F0ECFEBA
:100DD00007A901A807F01DFD07A807F08BFC04A8D0
:100DE00007F088FC039A0023013205F1080101A8ED
:100DF00007F07EFE01A807F0B1FF1649286004A89D
:100E000007F0BAFC04A90022204607F097FE21460D
:100E1000421C07A8FFF745FD07A9204607F0F9FC8B
:100E200007A807F067FC04A807F064FC204600212F
:100E300007F050FE03782D2B0ED10126054985F8C9
:100E4000296004A807F098FC204604A900220DE0C0
:100E5000D17801085C64010800269F4985F8296063
:100E600004A807F089FC204604A9324607F066FE74
:100E700032460346214607A807F096FE07A901A8B7
:100E800007F0C7FC07A807F035FC04A807F032FC00
:100E9000914904A807F070FC04A90022204607F03D
:100EA0004DFE00220346214607A807F07DFE07A954
:100EB00001A807F0AEFC07A807F01CFC04A807F087
:100EC00019FC039A0023013205F1180101A807F06B
:100ED0000FFE01A807F042FF7F49686004A807F0F1
:100EE0004BFC04A90022204607F028FE2146421CA4
:100EF00007A8FFF7D6FC07A9204607F08AFC07A839
:100F000007F0F8FB04A807F0F5FB734904A807F005
:100F100033FC04A90022204607F010FE00220346FD
:100F2000214607A807F040FE07A901A807F071FCB9
:100F300007A807F0DFFB04A807F0DCFB039A0023F7
:100F4000013205F1500101A807F0D2FD01A807F018
:100F500005FF09F033FBC5E912015F4904A807F05A
:100F60000BFC04A90022204607F0E8FD2146421CA4
:100F700007A8FFF796FC07A9204607F04AFC07A838
:100F800007F0B8FB04A807F0B5FB534904A807F025
:100F9000F3FB04A90022204607F0D0FD00220346FF
:100FA000214607A807F000FE07A901A807F031FCB9
:100FB00007A807F09FFB04A807F09CFB039A0023F7
:100FC000013205F1640101A807F092FD01A807F0C4
:100FD000C5FE4149286604A807F0CEFB04A90022FB
:100FE000204607F0ABFD2146421C07A8FFF759FC3D
:100FF00007A9204607F00DFC07A807F07BFB04A813
:1010000007F078FB344904A807F0B6FB04A90022D6
:10101000204607F093FD00220346214607A807F06B
:10102000C3FD07A901A807F0F4FB07A807F062FBBE
:1010300004A807F05FFB039A01A805F178010132CB
:10104000002307F055FD01A807F088FE0826686711
:10105000214904A807F090FB04A90022204607F0CC
:101060006DFD2146421C07A8FFF71BFC07A920467F
:1010700007F0CFFB07A807F03DFB04A807F03AFBF9
:10108000013EE5D1144904A807F076FB204604A9E7
:10109000324607F053FD32460346214607A807F0C3
:1010A00083FD07A901A807F0B4FB07A807F022FBFE
:1010B00004A807F01FFB01A807F04BFE85F8880085
:1010C00005F12C00FFF795FB012401A807F012FBA6
:1010D00020460EB070BD00BF5C64010810B5084C1E
:1010E0004A21204602F00DF92046022102F01AF9A9
:1010F0002046002102F016F9204602F00EF910BD3C
:101100005C1D00200000000070B5354C86B04A21FF
:10111000204602F0F6F80321204602F003F92046AB
:1011200002F0FBF820464A21012202F0FFF8237A60
:10113000012B03D1204602F007F905464A21284831
:1011400002F0DFF80421264802F0ECF8244802F00F
:10115000E4F823484A21012202F0E8F8237A012B1F
:1011600003D11F4802F0F0F80646C5F3031301202F
:10117000984009F063FE2D010446EDB206F00F0021
:10118000284309F05BFE0146204609F0ABFE09F05A
:1011900015FA11A3D3E9002309F064FA09F044FD1C
:1011A00010490446684607F0E7FA694603A807F0C5
:1011B00026FB214603A807F06CFC01460A4807F00D
:1011C0008FF903A807F096FA684607F093FA2046CD
:1011D00006B070BDAFF300800AD7A3703D0AA73FE9
:1011E0005C1D0020E032010840200020AFF30080A9
:1011F00008B51320012107F0E9FD1420012107F0B3
:10120000E5FD1320002107F0E1FDBDE808401420B2
:10121000002107F0DBBD08B51420012107F0D6FD41
:101220001320002107F0D2FDBDE808401320012162
:1012300007F0CCBD08B51420012107F0C7FDBDE8BB
:1012400008401420002107F0C1BD38B50446082528
:101250000021142007F0BAFD23064CBF0121002114
:10126000132007F0B3FD1420012107F0AFFD013D6D
:101270001420002107F0AAFD640015F0FF05E4B278
:10128000E6D138BD38B50C460546FFF7B1FF7820EA
:10129000FFF7DBFFFFF7CEFF0CB1402000E0204658
:1012A000FFF7D3FFFFF7C6FF2846FFF7CEFFFFF794
:1012B000C1FFBDE83840FFF7AEBF014608B9A62020
:1012C00001E0A7200021FFF7DDBF10B5044630B9CB
:1012D000C8202146FFF7D6FFA120214605E0C02007
:1012E0000021FFF7CFFFA0200021BDE81040FFF74D
:1012F000C9BF000038B50024A4F15000C0B20021DD
:10130000FFF7C0FF00200146FFF7BCFF10200021BF
:10131000FFF7B8FF0025074B01212344585D08352E
:10132000FFF7B0FFB5F5806FF5D10134082CE3D19C
:1013300038BD00BFC117002000220023064900204D
:101340001144C8540833B3F5806FF7D10132082A2D
:10135000F3D1FFF7CFBF00BFC117002008B514209D
:10136000002107F05FFD1320002107F05BFD322014
:10137000002107F057FD0121322007F027FD6420EE
:1013800007F03AFD0021322007F020FDC82007F0C9
:1013900033FD3220012107F019FDAE200021FFF7B7
:1013A00071FF00200146FFF76DFF10200021FFF7BD
:1013B00069FF40200021FFF765FF81200021FFF732
:1013C00061FFCF200021FFF75DFFA1200021FFF783
:1013D00059FFC8200021FFF755FFA6200021FFF785
:1013E00051FFA8200021FFF74DFF3F200021FFF70C
:1013F00049FFD3200021FFF745FF00200146FFF7FA
:1014000041FFD5200021FFF73DFF80200021FFF79D
:1014100039FFD9200021FFF735FFF1200021FFF728
:1014200031FFDA200021FFF72DFF12200021FFF706
:1014300029FFDB200021FFF725FF40200021FFF7D7
:1014400021FF20200021FFF71DFF02200021FFF7D0
:1014500019FF8D200021FFF715FF14200021FFF751
:1014600011FFA4200021FFF70DFFA6200021FFF7A8
:1014700009FFAF200021FFF705FFBDE80840FFF797
:101480005BBF0000C00000EBD100012201F00701AA
:1014900002FA01F1024B1A5C11431954704700BF64
:1014A000C1170020C00010B500EBD100012401F0ED
:1014B000070104FA01F1034B1A5C22EA01011954F5
:1014C00010BD00BFC11700202DE9F74F83460D4620
:1014D000904601934FF0000A5FFA8AF646452FD2F4
:1014E000DDF804900024A9445FFA89F9CDF8009052
:1014F0002746A946009B99451FD00C9B06EB0B0085
:1015000008FB073111F80A10C0B2214111F0010F98
:10151000494602D0FFF7B6FF01E0FFF7C3FF0134F1
:10152000E4B2072C04D907F1010C5FFA8CF7002410
:1015300009F101035FFA83F9DCE70AF1010ACBE75D
:1015400003B0BDE8F08F00002DE9F04F13F007075E
:1015500018BF012707EBD3071C465B085F43203AFF
:10156000264BD2B24FF00C0808FB0238244B85B052
:1015700003EB02130393234B4FF0240909FB0239B9
:10158000FFB2019706468A46CDF808800D4600272F
:10159000019BFAB29A422DD20C2C07D1029B13F870
:1015A000078005F1080B5FFA8BFB0AE0102C01D1D4
:1015B000039BF4E7182C1DD119F80780F1E75D456E
:1015C00016D018F0800F3046294602D0FFF75AFF98
:1015D00001E0FFF767FF0135EDB2CAEB05014FEA05
:1015E0004802A1425FFA82F8E9D10136F6B25546C7
:1015F0000137CDE705B0BDE8F08F00BF005D010801
:1016000027390108604F01082DE9F8434FEA5308D4
:1016100004460D461E46C8F18009571E17F8012FD3
:10162000A2F120035E2B0CD82046444429463346C1
:10163000E4B2FFF789FF4C45F0DD3544EDB20024FC
:10164000ECE7BDE8F88300002DE9F04F1C4662434B
:1016500089B0DB08D2100493059281468C460A4675
:101660000646002304995FFA83FB594558D0059933
:101670004FF0480A8B442C495FFA8BFB01EB0B11AE
:1016800007912A4900250AFB0B1A294901EBCB11C6
:101690000691284901EB4B2BE9B2A1423ED2102C16
:1016A00004D107994F5D4FF000081AE0182C02D1C1
:1016B0001AF80570F7E7202C01D10699F2E7402CC3
:1016C0002ED11BF80570EEE7FFF7ECFEDDF804C045
:1016D000039B029A08F10108B8F1080F4FEA570777
:1016E00010D00CEB08010393FB07C9B230460292FD
:1016F000CDF804C0E8D5FFF7C5FE029A039BDDF8DC
:1017000004C0E7E70136F6B2C9EB0601A14202D1F7
:101710000832D2B24E4601359446BDE70133A1E707
:1017200009B0BDE8F08F00BFE73301080F330108AF
:1017300027370108173F0108064BD91D002200205A
:1017400098540832B2F5806FF9D101338B42F5D14C
:10175000FFF7D0BDC217002008B5FFF7EDFF10213D
:101760000B4618200122FFF76FFF10210B4628209F
:101770000222FFF769FF10210B4638200322FFF7F2
:1017800063FF10210B4648200422FFF75DFF102164
:101790000B4658200522FFF757FF2820202106225C
:1017A0001023FFF751FF3820202107221023FFF7D5
:1017B0004BFF1023482020210822FFF745FFBDE8FA
:1017C0000840FFF797BD08B5FFF7B6FF10210B469D
:1017D00018200922FFF738FF10210B4628200A2283
:1017E000FFF732FF10210B4638200B22FFF72CFFAA
:1017F00010210B4648200C22FFF726FF10210B4634
:1018000058200D22FFF720FF1020034620210E2232
:10181000FFF71AFF202001460F221023FFF714FFC5
:101820001022134630202021FFF70EFF40202021F8
:1018300011221023FFF708FF50202021122210232D
:10184000FFF702FF1023602020211322FFF7FCFE88
:10185000BDE80840FFF74EBD30B587B005460C46E1
:101860006846214906F088FF2846FFF765FF1021EA
:101870000B4618201422FFF7E7FE10210B46282004
:101880001522FFF7E1FE10210B4638201622FFF744
:10189000DBFE10210B4648201722FFF7D5FE102152
:1018A0000B4658201822FFF7CFFE0A22214603A834
:1018B00006F0D9FF03A9684606F0ABFF03A806F0BF
:1018C00019FF009A282020211023FFF79DFE2021D8
:1018D000192210234820FFF7B7FEFFF70BFD6846DB
:1018E00006F008FF07B030BDD178010840F6B373A9
:1018F000994207B501D9124B16E0A1F57063B32BDD
:1019000001D8104B10E0A1F64C63B32B01D80E4B5D
:101910000AE0A1F69853B32B01D80C4B04E0A1F6D2
:10192000E441B32907D80A4B009314200021112267
:101930000823FFF7C9FD03B05DF804EBFFF7DABC3D
:10194000FE320108CD5C0108284F0108174F01083D
:10195000BC5C010807B5084611B9114B009315E0AE
:10196000012901D10F4B0EE0022901D10E4B0AE0F3
:10197000032901D10D4B06E0042901D10C4B02E0F3
:10198000052907D10B4B00200093014611220823A3
:10199000FFF79AFD03B05DF804EBFFF7ABBC00BFA7
:1019A000EF5C010874610108ED3201084F4F010836
:1019B000DE5C01083E4F010870B592B004466549EF
:1019C000684606F0D9FE634903A806F0D5FE6149D2
:1019D00006A806F0D1FE5F4909A806F0CDFE204614
:1019E0005D4CFFF7A9FED4F888605C49304609F0E9
:1019F00017FC05460FA8A5B10222314606F057FF95
:101A00000FA9684606F005FF0FA806F073FE102127
:101A10000020009A0B46FFF7F7FD28201021002236
:101A200012E04F4906F0A8FE0FA9684606F0F1FE45
:101A30000FA806F05FFE10212846009A0B46FFF71C
:101A4000E3FD282010212A460B46FFF7FDFDD4F8C0
:101A500090504249284609F0EDFB28B10CA82946D0
:101A6000022206F024FF03E00CA83D4906F084FEA4
:101A70000CA90FA806F0C3FE3A490FA806F0CFFF45
:101A8000014603A806F0ACFE0FA806F033FE0CA832
:101A900006F030FE10210B464020039AFFF7B4FDFC
:101AA000D4F88010304B0CA8994203D80A2206F0D3
:101AB000ECFE02E02A4906F05FFE0CA90FA806F032
:101AC0009EFE2A490FA806F0AAFF014606A806F0C6
:101AD00087FE0FA806F00EFE0CA806F00BFE0020F5
:101AE0002021069A1023FFF78FFDD4F894100CA83C
:101AF000632903D80A2206F0B6FE02E0184906F070
:101B00003BFE0CA90FA806F07AFE0FA8184906F0B4
:101B100086FF014609A806F063FE0FA806F0EAFD5D
:101B20000CA806F0E7FD2021099A10234020FFF7BA
:101B30006BFDFFF7DFFB09A806F0DCFD06A806F049
:101B4000D9FD03A806F0D6FD684606F0D3FD12B015
:101B500070BD00BFD1780108CC1B00200000C84236
:101B600061790108156201087F1A0600394F0108E2
:101B70002562010870B5344C96B001A8334906F0CF
:101B8000FBFD0A22617904A806F05CFE04A907A8FF
:101B900006F035FE07A82E4906F041FF0A22054649
:101BA00021790AA806F04EFE0AA9284606F02AFF67
:101BB000284906F034FF0A220546A1780DA806F050
:101BC00041FE2846244D0DA906F01CFF294606F0CB
:101BD00026FF0A220646617810A806F033FE10A9F7
:101BE000304606F00FFF294606F019FF0A22054687
:101BF000217813A806F026FE13A9284606F002FF56
:101C0000014601A806F0ECFD13A806F073FD10A82C
:101C100006F070FD0DA806F06DFD0AA806F06AFD3D
:101C200007A806F067FD04A806F064FD3021019ABC
:101C300010230020FFF7E8FCFFF75CFB01A806F08B
:101C400059FD16B070BD00BFC41B0020D17801083B
:101C50003C4F0108FE6A01084F66010808B5184BA1
:101C60001C201A68022122F0E06242F000721A6021
:101C700007F0D8F81D20022107F0D4F81E2000211B
:101C800007F0D0F81F20002107F0CCF80420002135
:101C900007F0C8F80520002107F0C4F82B20002128
:101CA00007F0C0F80120002107F0BCF81520002142
:101CB00007F0B8F8BDE808400420002107F086B816
:101CC0000400014008B51520002107F07FF8BDE8A9
:101CD00008400A2007F090B81520012107F076B8D7
:101CE0002DE9F041431E86B0642B044600AF04D8B2
:101CF00010F0010F08BF0B2400E00B24A3000A33EF
:101D000023F00703ADEB030D04F1FF386D46002609
:101D1000062007F037F845F826000136F3B2A34253
:101D2000F6D300210022D3B243450CDA5E1C55F8ED
:101D300023E055F826000132864584BF45F826E0A9
:101D400045F82300EFE70131CBB2A342EAD30134D7
:101D5000641055F8240009F06DF808F02FFC18A362
:101D6000D3E9002308F07EFC08F05EFF164909F075
:101D7000B9F809F0A3FA15490446384606F0FCFC08
:101D8000394607F10C0006F03AFD214607F10C0038
:101D900006F06BFE0E4906F042FE01460D4806F0C5
:101DA0009FFB07F10C0006F0A5FC384606F0A2FCEC
:101DB00020461837BD46BDE8F08100BFAFF3008074
:101DC0000F0BB5A679C7E93F0000C0408561010847
:101DD000986101084020002008B50021012006F08C
:101DE000F5FF4FF47A7007F007F80120014606F07E
:101DF000EDFFBDE808404FF4FA7006F0FDBF0000AB
:101E000008B5032004F078FC0348044906F072FB8F
:101E1000BDE8084005F076BB402000209B6101082A
:101E200038B5074C0546204604F083FB054B4219A4
:101E30005D6020460449BDE8384004F07CBB00BF2B
:101E4000C21B0020941E0020011E00080148112121
:101E500004F063BBC21B002070B50E46054624216A
:101E60000A481446072201F0B9F9094801F054F96B
:101E70000021306009F0E8F908B1002300E00123F7
:101E80002370034801F028F9286070BD4C1D002024
:101E9000481D002030B5192187B0182204461F487C
:101EA00001F09CF94FF4FA7006F0A6FF1C48FFF70A
:101EB00015F938B11B481C4906F01CFB6FF07F4335
:101EC000236029E01648FFF71FF909F0F7F91749D1
:101ED0000546684606F050FC694603A806F08FFCEC
:101EE000294603A806F0CBFD01460E4806F0F8FA95
:101EF00003A806F0FFFB684606F0FCFB0C492560D2
:101F0000084806F0DCFA216806480A2206F09BFB26
:101F10000448084906F0EEFA07B030BD5C1D002009
:101F2000C017002040200020AF610108E5610108D2
:101F3000F36101080A62010830B5012187B0A14CA4
:101F4000052006F043FF40F6B83006F055FF04F1D7
:101F50008C0204F1880104F19000FFF77DFF4FF43B
:101F6000FA7006F049FF04F1940104F18000FFF7D4
:101F700091FF4FF4FA7006F03FFF934804F0D9FA4E
:101F8000924D01462846FEF70DF9EB8890496361B2
:101F90006B79904823612B79E360AB78A3606B7811
:101FA00063602B78236006F0A5FA8B49684606F03B
:101FB000E3FB694603A806F022FCD4F8881003A8C6
:101FC00006F067FD854906F02AFD0146814806F0C6
:101FD00087FA03A806F08EFB684606F08BFB804963
:101FE000684606F0C9FB694603A806F008FCD4F869
:101FF000901003A806F04DFD7A4906F010FD014649
:10200000744806F06DFA03A806F074FB684606F003
:1020100071FB7549684606F0AFFB694603A806F0F8
:10202000EEFBD4F8801003A806F029FD6F4906F0F6
:10203000F6FC0146674806F053FA03A806F05AFB7F
:10204000684606F057FB6A49684606F095FB694604
:1020500003A806F0D4FBD4F8941003A806F005FDFD
:10206000644906F0DCFC01465A4806F039FA03A838
:1020700006F040FB684606F03DFB5F49684606F007
:102080007BFB694603A806F0BAFBA36A0A21B3FBEF
:10209000F1F103A806F0E9FC504906F0C0FC014646
:1020A0004C4806F01DFA03A806F024FB684606F02B
:1020B00021FB5249684606F05FFB694603A806F01B
:1020C0009EFB616A03A806F0E4FC464906F0A7FC03
:1020D0000146404806F004FA03A806F00BFB6846E8
:1020E00006F008FB4649684606F046FB694603A829
:1020F00006F085FB616B03A806F0B7FC414906F0CA
:102100008EFC0146334806F0EBF903A806F0F2FA1C
:10211000684606F0EFFA3C49684606F02DFB694632
:1021200003A806F06CFB216B03A806F09EFC374960
:1021300006F075FC0146274806F0D2F903A806F020
:10214000D9FA684606F0D6FA3149684606F014FB1B
:10215000694603A806F053FBA06B08F06BFE2D49FF
:1021600008F074FF014603A806F093FC2A4906F024
:1021700056FC0146174806F0B3F903A806F0BAFA70
:10218000684606F0B7FA1249124806F0B3F9234838
:102190004FF4A061FEF7E6FA2048FEF71CFB50B1B1
:1021A0001F4B1B68984206D204F024F804F082F812
:1021B0001C4B01221A740649064806F09BF907B029
:1021C00030BD00BFCC1B0020C21B0020C41B002060
:1021D000D178010840200020306201080F62010818
:1021E0004462010814620108196201080A620108C8
:1021F0001F620108246201082A6201083E62010888
:102200004F6201085C620108626201086F620108A6
:10221000766201080000C842FE6A0108C01F002063
:1022200014000020941E0020024B2421072283E882
:10223000060070476C1C002013B5026802AB03F85F
:10224000011D546A19460122A04702B010BD07B50E
:1022500003680DF107019B6A0122984701280CBF12
:102260009DF807004FF0FF3003B05DF804FB4FF01E
:10227000FF30704708B50369186803689B69984781
:1022800008BD036810B5DB680446984708B9207F8D
:1022900010BD012010BD08B503681B6B98470030C6
:1022A00018BF012008BD0000F0B585B00C460646F9
:1022B000194901A81746194D06F05EFA01A8102128
:1022C00006F036FA217901A806F042FB294601A85A
:1022D00006F022FB617901A806F03AFB294601A825
:1022E00006F01AFBA17901A806F032FB294601A8E5
:1022F00006F012FBE17901A806F02AFB3368019988
:102300001B6A3A4630469847044601A806F0F2F99F
:10231000204605B0F0BD00BFD1780108376F010835
:1023200008B50B4B1E20197881F00101197006F0D9
:102330004DFD084B1A680132B2F5967F01D21A6042
:1023400008BD00221A60BDE8084005F0DBB800BFF8
:10235000801C0020441D002010B50446206803683E
:10236000DB68984710B906F047FDF7E72068036877
:102370001B6998472C28F1D1012010BD2DE9F04FA1
:10238000054687B08A46104640211E461446129FD5
:1023900006F0CEF98F4BD3F800B0002006F02CFDEC
:1023A00028680368DB689847002840F3E4802868C1
:1023B00003681B699847011EF2DD2046C9B206F08A
:1023C000BAFA16B9109BA3B910E0314603A806F07B
:1023D000D3F9204603A906F066FB814603A806F060
:1023E00089F9B9F1000FEDD00120EFE0119B9BB905
:1023F00010E0109903A806F0BFF9204603A906F0E3
:1024000052FB814603A806F075F9B9F1000FEDD033
:102410000220DBE0A7B910E0119903A806F0ACF99F
:10242000204603A906F03FFB814603A806F062F9A7
:10243000B9F1000FEED00320C8E0139B0BBB10E0F6
:10244000394603A806F098F9204603A906F02BFBAD
:10245000814603A806F04EF9B9F1000FEDD0042033
:10246000B4E05D4903A806F087F9204603A906F009
:102470001AFB814603A806F03DF9B9F1000F11D10E
:1024800039E0139903A806F077F9204603A906F06E
:102490000AFB814603A806F02DF9B9F1000FE0D040
:1024A000052093E0684629682C2206F0FBF8684670
:1024B00006F04FFC0128814615D129680A2203A89D
:1024C00006F0F0F803A806F044FC804603A806F0E6
:1024D00011F92046414906F0A4F905EB88035B6831
:1024E00083F81D9003E02046694606F010FA68461E
:1024F00006F000F954E73A4903A806F03DF92046F2
:1025000003A906F0D0FA804603A806F0F3F8B8F164
:10251000000F3FF445AF334903A806F02DF9A26838
:1025200003A9083A204606F01BFB804608F1020882
:1025300003A806F0DFF842462C21204606F0F0FA08
:1025400042460346214603A806F02EFB03A806F0E8
:1025500000FC804603A806F0CDF8B8F1000F3FF468
:102560001FAF05EB88035B68204683F81C901B496E
:1025700006F057F914E7174B1B68CBEB03035345E1
:10258000FFF40BAF204606F0BAFBA368CBB121469F
:10259000684606F034F91449144805F090FF2021EC
:1025A000124805F087FF694603A806F028F903A939
:1025B0000E4805F095FF03A806F09CF8684606F063
:1025C00099F82046054906F02CF90020C0B207B062
:1025D000BDE8F08F9C21002023640108D178010818
:1025E00030640108CF7801083964010840200020D8
:1025F000F0B589B01C4607460E4605A80B4915469E
:1026000006F0BAF800940E9C314601940F9C05AA7E
:102610000294109C2B4603943846FFF7AFFE044605
:1026200005A806F067F8204609B0F0BDD17801088A
:10263000F0B5044685B00E46006821491F46154690
:1026400005F03DFF20681F4905F039FF0A22394691
:10265000206805F0DCFF20682C2105F02BFF2068A6
:10266000194905F02CFF2068184905F028FF31466C
:10267000206805F024FF2068154905F020FF0A2294
:102680002946206805F0A2FF1249206805F017FFCF
:10269000206803689B699847002006F0ADFB0E4B4D
:1026A000204600930023019302930C490C4A0D4BE2
:1026B000FFF79EFF431E5842584105B0F0BD00BFD2
:1026C000486401084B64010856640108406A010827
:1026D0005B640108CF7801087A640108F8240100DE
:1026E0005E6401086B64010870B5044600200E4664
:1026F000154606F081FB0023C4F8A430C4F8A030CE
:10270000206931462A46237DFFF792FF003018BF2B
:102710000120207770BD7FB5089C0E460194099C6E
:102720001546009302944FF47A7132462B46FFF718
:102730005FFF04B070BD000008B51148012105F02D
:1027400023FE1E20002106F041FB1F20002106F081
:102750003DFB0420002106F039FB0520002106F096
:1027600035FB00212B2006F031FB012004F0D8FEC0
:10277000012004F0EFFEBDE8084004F0D7BE00BF22
:102780003821002008B50B20FFF7AAFA40F6E343F2
:10279000984208D81F49204805F0ACFE642006F096
:1027A0002BFBFFF7C9FF1D480021FFF7D3F801F00D
:1027B0005DFE40B91A49184805F09CFE642006F0F9
:1027C0001BFBFFF7B9FF03F0DFF940B915491248C9
:1027D00005F090FE642006F00FFBFFF7ADFF02F05E
:1027E000EFFD58B110490C4805F084FE4FF4FA6033
:1027F00006F002FBBDE80840FFF79EBF0B49064804
:1028000005F078FE642006F0F7FABDE8084004F011
:1028100079BE00BF8C64010840200020C11B00204D
:10282000AE640108E8640108286501086C650108C8
:1028300010B51D2006F0B4FAC8B901211E2006F01B
:10284000C5FA4FF47A7003F03BFE1D2006F0A8FA9B
:10285000044660B9064B0122064907481A7005F084
:1028600049FE21461E20BDE8104006F0AFBA10BD5B
:10287000751D0020AA6501084020002010B51C200D
:1028800006F08EFAF0B901211E2006F09FFA4FF4EF
:102890007A7003F015FE1C2006F082FA044688B90F
:1028A0004FF4A0610848FDF75DFF0748FDF795FF6D
:1028B0000649074805F01EFE21461E20BDE81040CF
:1028C00006F084BA10BD00BFC01F0020C765010814
:1028D0004020002010B586B0FFF7C0F98B484FF4B8
:1028E000E13105F0E1FC8A484FF4165105F0DCFCBB
:1028F00088484FF4165105F0D7FC8749684605F023
:102900003BFF694603A805F07AFF844903A806F057
:1029100086F801467D4805F0E3FD03A805F0EAFED0
:10292000684605F0E7FE7E49684605F025FF6946E2
:1029300003A805F064FF7B4903A806F070F8014680
:10294000724805F0CDFD03A805F0D4FE684605F0F9
:10295000D1FE7549684605F00FFF694603A805F0EA
:102960004EFF724903A806F05AF80146674805F081
:10297000B7FD03A805F0BEFE684605F0BBFE6C4936
:10298000684605F0F9FE694603A805F038FF2C21DA
:1029900003A806F060F801465C4805F0A1FD03A815
:1029A00005F0A8FE684605F0A5FE6249684605F0F8
:1029B000E3FE694603A805F022FF5F4903A806F07D
:1029C0002EF80146514805F08BFD03A805F092FE54
:1029D000684605F08FFE04F037FA58494B4805F079
:1029E00089FDB420FFF71CFA5549484805F082FDDF
:1029F000FEF7B4FC0020FEF760FC0020FEF765FC4B
:102A00005049424805F076FD0B20FFF769F940F682
:102A1000E343984208D84C493C4805F06BFD6420DC
:102A200006F0EAF9FFF788FE0B20FFF759F9014697
:102A30004648FEF75BFF464803F03CFB45493348F8
:102A400005F058FDFFF7F4FEFFF718FF0222424899
:102A5000012105F082FC41493F4805F05FFC01215E
:102A60000A463D4805F07DFC3D4A3B48012105F002
:102A700087FC3C49254805F03DFD3B49234805F0CE
:102A800039FD3248394CFEF767FEFFF755FA6846C4
:102A9000374905F071FE694603A805F0B0FEE188EC
:102AA00003A805F0D8FF334905F0B9FF617905F0B7
:102AB000C8FF314905F0B3FF217905F0C2FF2F4966
:102AC00005F0ADFFA17805F0BCFF2D4905F0A7FF8B
:102AD000617805F0B6FF2B4905F0A1FF217805F0DC
:102AE000B0FF294905F09BFF0146084805F0F8FCB6
:102AF00003A805F0FFFD684605F0FCFD1348FEF74E
:102B00005BFF1248FFF736F806B010BD40200020EA
:102B10007020002058200020DF650108E6650108CC
:102B20004A660108516601085D660108646601088D
:102B30006D66010874660108186401087B66010867
:102B40008E660108A76601088C640108C11B00207D
:102B5000101E0020BB6601083821002040420F00F3
:102B600021230008D0660108EA660108C41B002082
:102B7000096701080F670108136701081767010853
:102B80001B6701081F6701082367010870B5044629
:102B90000D4600680C49164605F091FC2946206850
:102BA00005F08DFC31460A22206805F030FD2068D2
:102BB000064905F084FC206803689B699847BDE8D6
:102BC0007040002006F018B948640108CF78010869
:102BD00013B50446002006F00FF92069227D07494D
:102BE000FFF7D4FF00232377009301932069044962
:102BF000044AFFF790FD02B010BD00BF276701082F
:102C00001E6401089E670108F0B50F4687B00025D5
:102C1000044626493A46FFF7B9FF0095019520463C
:102C20002349244A2B46FFF776FD01281AD1204676
:102C3000FFF792FB2046FFF78FFB21680A2203A8CB
:102C400005F030FD03A806F084F8064603A805F059
:102C500051FD0095019520461749164A2B46FFF76E
:102C60005AFDFEB904EB87033A46204613495E68D5
:102C7000FFF78CFF124B002500931249124A134BA9
:102C800001952046FFF747FD2B4607460095019525
:102C900020460949074AFFF73EFD7B1E5F425F4120
:102CA00037772E46304607B0F0BD00BF32670108C7
:102CB000256401089E6701081E6401083F6701083A
:102CC0006D6701084B6701085867010862670108D2
:102CD0007FB50546002405EB84035E6846B1737F2B
:102CE00033B1002373772846E1B2FFF78DFFF082FE
:102CF0000134052CEFD128680368DB68984748B198
:102D0000002200920192029228460A211346FFF700
:102D10006FFCF0E704B070BDD0F88020D0F88430AC
:102D2000D01A48BF8030704738B50446002006F0FE
:102D300063F8237F04F120058BB12846FFF7ECFFF1
:102D400068B90A4BA26919688A1AB2F5FA7F03D9E1
:102D50001B6801226277A3612069FFF7B9FF28464B
:102D6000FFF7DAFFE38A184438BD00BF9C2100203A
:102D70002DE9F04104460E46006812491F46904670
:102D8000069D05F09CFB3146206805F098FB414606
:102D90000A22206805F03BFC3946206805F08AFBD2
:102DA00029460A22206805F03BFC2068064905F008
:102DB00086FB206803689B699847BDE8F0410020C6
:102DC00006F01AB848640108CF780108F0B587B05A
:102DD0000025044600920F4616461C491A462C232D
:102DE000FFF7C6FF0095019520461949194A2B4661
:102DF000FFF791FC012802D04FF0FF3422E0206859
:102E00003946036832469B689847206803689B6987
:102E100098470095019520460F490E4A2B46FFF72B
:102E20007AFC0128E8D12046FFF796FA216803A82A
:102E30000A2205F037FC03A805F08BFF044603A81F
:102E400005F058FC204607B0F0BD00BF78670108C8
:102E5000CC6701089E6701088267010870B50446C7
:102E600000200E46154605F0C7FF2069FFF730FF2A
:102E7000206931462A46237DFFF7A8FF70BD000078
:102E80002DE9F04186B00025044600912C232F49FE
:102E90001646FFF76DFF0095019520462C492D4AF7
:102EA0002B46FFF738FC01284BD12046FFF754FA98
:102EB0002046FFF751FA21682C2203A805F0F2FB07
:102EC00003A805F046FF074603A805F013FC04EB32
:102ED000860603A821680A22D6F8048005F0E2FBE2
:102EE00003A805F036FFA8F8160003A805F002FCB9
:102EF000BD421ED020680368DB68984710B905F012
:102F00007BFFF7E7206803681B69984773685FFADF
:102F100080FED3F8A010D3F8A4004A1C02F07F0270
:102F2000824204D0194481F820E0C3F8A020013582
:102F3000DEE700230093019320460749054AFFF787
:102F4000EAFB284606B0BDE8F08100BF91670108A2
:102F5000256401089E6701081E6401082DE9F74FEA
:102F6000044600208946019205F046FF2069FFF7DC
:102F7000AFFE0025019B9D4245D2019B04F1200B31
:102F80005846C5EB0308FFF7C7FE404538BF8046EB
:102F9000B8F1000F24D04746CA465846FFF7BCFE9A
:102FA00010B9C1444544E5E7D4F8A430C3F1800624
:102FB000B742B8BF3E468642A8BF06460BEB0301A8
:102FC00050463246009308F0B3FF009BBF1B03EB53
:102FD000060C0CF07F02C4F8A420B244E1D0DCE778
:102FE0002069FFF775FEE38A6BB1D4F8A420D4F80A
:102FF000A0302069D11A0029D8BF80310139227D43
:10300000FFF73EFFB6E7284603B0BDE8F08F0000AB
:1030100013B5002422462346009421460D4805F0AE
:1030200009FA0D4B0D4A0E481A604FF47A7282600D
:103030000C4A446002600122C0F8A440C0F8A040DD
:1030400003610275C482846104774477986002B09A
:1030500010BD00BF781C00202C1D0020582000202F
:10306000841C0020E063010838B5194C0D46204649
:10307000402100F046F92946204600F053F9204649
:1030800000F04BF9642005F0B7FE402103222046F2
:1030900000F04CF90F4B217A1A68022902F596725A
:1030A00003D819689142FCD010E0204600F04CF99A
:1030B0000546204600F048F900EB05204FF6FC7568
:1030C0000540204600F040F9284638BD002038BDB4
:1030D0004C1D00209C21002010B5F521FFF7C4FFF6
:1030E00007F0A8FE0021044608F090F868B92046D1
:1030F00007F064FA0022064B07F0B4FA0022054BF1
:1031000007F0FCF807F090FD10BD002010BD00BFD7
:1031100000405F3F0000184010B5F32186B0FFF774
:10312000A3FF07F087FE0021044608F06FF838BBC4
:10313000204607F043FA14A3D3E9002307F092FADC
:1031400013A3D3E9002307F0D9F807F06DFD124966
:103150000446684605F010FB694603A805F04FFBDE
:10316000214603A805F095FC01460C4805F0B8F986
:1031700003A805F0BFFA684605F0BCFA204600E057
:10318000074806B010BD00BFD7A3703D0AF7653FE2
:10319000CDCCCCCCCC6C4740A667010840200020A9
:1031A000008088C3AFF300800A4B1A680A4B9B6803
:1031B00000BF00BF074909688A42F5D1C3F58C33C7
:1031C000482103F5A073B3FBF1F34FF47A7000FBD1
:1031D000023070479C21002010E000E010B504464A
:1031E00080E80600D0B2002105F01CFE2078002106
:1031F00005F018FE00232079E360012105F0E6FDCB
:1032000020780121BDE8104005F0E0BD38B5C36865
:1032100004460D4623B10021C160007805F002FE8E
:1032200020782946BDE8384005F0D0BD10B5002112
:103230000446FFF7EBFF642005F0ECFD2079002148
:1032400005F0C4FDBDE81040642005F0E3BD10B5F5
:1032500000210446007905F0B9FD642005F0DAFD8F
:1032600020460021FFF7D2FF642005F0D3FD20792E
:10327000012105F0ABFD642005F0CCFD20460121C5
:10328000FFF7C4FFBDE81040642005F0C3BDF8B5EA
:1032900004460E460825F7092079002105F096FD21
:1032A00020463946FFF7B2FF0121207905F08EFD57
:1032B000642005F0AFFD20463946FFF7A7FF7600F2
:1032C000013DF6B2E7D12946207905F07FFD20784F
:1032D000022105F0A7FD0223E3602079012105F01A
:1032E00075FDFFF761FF0546207805F059FD30B107
:1032F000FFF75AFF401B6428F6D90020F8BD0120D3
:10330000F8BD38B50D460446FFF790FF690020462A
:1033100001F0FE01FFF7BBFF38BD08B5FFF797FFCF
:10332000002008BD08B5FFF7B2FF08BD70B50D4617
:103330006D0004461646FFF779FF691CA66020461B
:10334000C9B2FFF7A4FF70BD70B586680446002EB1
:1033500055D00078022105F065FD0223E3600825C1
:1033600000262079002105F031FD0121207905F0AA
:103370002DFD642005F04EFD207805F011FD013D86
:1033800000EB460000F0FF06EBD1A3686068013B4C
:10339000002BA360C0B2294617DD05F017FD64209D
:1033A00005F038FD29462046FFF730FF642005F080
:1033B00031FD2079012105F009FD642005F02AFD89
:1033C0002079294605F002FD19E005F0FFFC642094
:1033D00005F020FD01212046FFF718FF642005F0CD
:1033E00019FD0121207905F0F1FC642005F012FDA2
:1033F0002079294605F0EAFC2046FFF728FF3046F1
:1034000070BD002330B5054618468B420FDAEA5CE2
:103410005040082210F0010F4FEA60041ABF84F0F8
:10342000E000C0B2E0B2013AF4D10133EDE730BDC3
:1034300010B5044620680368DB68984710B905F0AA
:10344000DBFCF7E7206803681B6998472C28F1D15B
:10345000012010BD2DE9F041C44DC8B0697B0022A8
:103460004C298DF8042008AC4FF0FE00C04B40F012
:1034700008812070D02060702720A0701878BD4F80
:10348000E0705878617220719878DB786071A37170
:103490000623E37107F12100022323720292ADF8A3
:1034A0000C2009F085FA04A9C3B201AA07F1210092
:1034B000FDF73AF804A809F07BFA04A9024602A82D
:1034C000FCF7FAFF9DF80830A3729DF80930E3720B
:1034D0009DF80A3023739DF80B3063739DF80C3010
:1034E000A37397F851300BB9E82302E0012B03D105
:1034F000F823E373102600E00F2600239E48029372
:10350000ADF80C3009F054FA04A9C3B201AA9A48E4
:10351000FDF70AF804A809F04BFA04A9024602A82C
:10352000FCF7CAFF9DF808309DF80920A355731CCD
:10353000E2549DF80A20B31CE2549DF80B20F31CC2
:10354000E2549DF80C20331DE25497F85230751D5B
:103550000BB9E72302E0012B02D1F7236355B51D18
:103560006A1CFF23D2B26355A354AA1CD2B2A3543F
:10357000EA1CD2B2E221A1542A1DD2B2A3546A1D80
:10358000D2B2A354AA1DD2B2A354EA1DD2B2E521ED
:10359000A15405F10802D2B2A35405F10902D2B236
:1035A000A35405F10A02D2B2A35405F10B02D2B220
:1035B000E321A15405F10C02D2B20DF10501002660
:1035C000A35438680DF106020DF107030296ADF819
:1035D0000C60FCF735FF9DF8052005F10D03DBB20B
:1035E000E2549DF8062005F10E03DBB23879E2546F
:1035F000FCF758FF05F10F03DBB2E054387AFCF713
:1036000051FF05F11003DBB2E054387BFCF74AFFB1
:1036100005F111085FFA88F804F80800387CFCF717
:1036200041FF05F11203DBB2E054387DFCF73AFFAD
:1036300005F1140705F11303DBB2FFB2E054F91EE4
:103640000DF1230084F80280FFF7DBFEE05505F161
:1036500016071535EDB20D2348484949635504F066
:103660002EFFFFB23546BD42444880F07981615D4E
:10367000102204F0CCFF4148424904F020FF0135FC
:10368000F1E72070D02060702720A07018783E4F9E
:10369000E0705878472120719878DB786071A371C9
:1036A0000623E37107F10800022369732372617234
:1036B0000292ADF80C2009F07BF904A9C3B201AA6B
:1036C00007F10800FCF730FF04A809F071F904A91C
:1036D000024602A8FCF7F0FE9DF80830A3729DF8A0
:1036E0000930E3729DF80A3023739DF80B30637341
:1036F0009DF80C30A37397F828300BB9E82302E04B
:10370000012B03D1F823E373102600E00F260023DA
:103710001E480293ADF80C3009F04AF904A9C3B26F
:1037200001AA1A48FCF700FF04A809F041F904A90E
:10373000024602A8FCF7C0FE9DF808309DF809205B
:10374000A355731CE2549DF80A20B31CE2549DF863
:103750000B20F31CE2549DF80C20331DE25497F823
:103760002930751DA3B9E72315E000BF941E002082
:10377000101E0020781D0020A91D002040200020E0
:10378000CA670108FE6A0108B01E0020C81E00209A
:10379000012B02D1F7236355B51D0026764802960A
:1037A000ADF80C6009F004F904A9C3B201AA72488B
:1037B000FCF7BAFE04A809F0FBF804A9024602A827
:1037C000FCF77AFE9DF808309DF8092063556B1CC4
:1037D000DBB2E2549DF80A20AB1CDBB2E254EB1CD6
:1037E000DBB2E2226548E2540296ADF80C6009F0C3
:1037F000DFF804A9C3B201AA6048FCF795FE04A84B
:1038000009F0D6F804A9024602A8FCF755FE9DF877
:1038100008202B1DDBB2E2549DF809206B1DDBB2A2
:10382000E2549DF80A20AB1DDBB2E254EB1DDBB283
:10383000E5225348E2540296ADF80C6009F0B8F85E
:1038400004A9C3B201AA4E48FCF76EFE04A809F011
:10385000AFF804A9024602A8FCF72EFE9DF8082046
:1038600005F10803DBB2E2549DF8092005F10903D4
:10387000DBB2E2549DF80A2005F10A03DBB2E25400
:1038800005F10B03DBB2E322E25497F8882005F13F
:103890000C03DBB20DF10501E254F86A0DF10602EA
:1038A0000DF107030296ADF80C60FCF7C9FD9DF819
:1038B000052005F10D03DBB2E2549DF8062005F169
:1038C0000E03DBB297F83000E254FCF7EBFD05F194
:1038D0000F03DBB2E05497F83400FCF7E3FD05F189
:1038E0001003DBB2E05497F83800FCF7DBFD05F17C
:1038F00011085FFA88F804F8080097F83C00FCF714
:10390000D1FD05F11203DBB2E05497F84000FCF75B
:10391000C9FD05F1140705F11303DBB2FFB2E05452
:10392000F91E0DF1230084F80280FFF76AFDE055CF
:1039300005F116071535EDB20D2312481249FFB2F5
:10394000635504F0BCFDBE420E4809D2A15D1022B1
:1039500004F05DFE0B480D4904F0B1FD0136F2E7BD
:103960000B4904F0C7FD21463A460A48FFF776FAAC
:1039700048B0BDE8F08100BF001F0020141F0020E8
:10398000281F002040200020CA670108FE6A0108A5
:10399000CE670108841C00202DE9F041744CACB0C6
:1039A0002378002B40F0E0806378002B40F0DC802F
:1039B000A378002B40F0D880E778002F40F0D48027
:1039C0006C496D4804F096FD6C48FDF7FCFEFE2343
:1039D0008DF8303002238DF83130237809218DF8AD
:1039E000333063780DF133008DF83430A3788DF8DF
:1039F00032108DF83530E3783D468DF836300123AE
:103A00008DF837305E4B1A788DF838205A788DF85B
:103A100039209A78DB788DF83A208DF83B30FFF723
:103A2000F0FC0D238DF83C00564903A88DF83D307D
:103A300004F0A2FE5448FEF724FC002800F0918018
:103A4000002D40F08E804C48504904F038FD2E4641
:103A50000DF1300818F806101022474804F0D7FD81
:103A6000013645484A4904F02AFD0E2EF0D1494955
:103A7000414804F03FFD444841463246FFF7EEF925
:103A80004FF47A7005F0B8F93F48FFF74DF9002878
:103A900000DD95B1022F0BD93F49374804F02AFDCC
:103AA0003948FFF795F803A804F024FE00205CE0F5
:103AB0004FF47A6005F0A0F9BCE73348FEF7C7FB86
:103AC000C1B20029E0D003A804F035FF334909A8AA
:103AD00004F052FE03A809A904F0E5FF064609A870
:103AE00004F008FE002ECFD006A827490A2201AE16
:103AF00004F0D8FD2B4606A83146052204F0F8FF55
:103B00002B46F25C402A94BF303A373AE2540133F4
:103B1000042BF6D1224909A804F02EFE06A909A813
:103B200004F070FF0146144804F0DAFC09A804F020
:103B3000E1FD0F4802F04CFA38B11A4B00220F4851
:103B40001A700125FDF738FF07E002F08DFA013702
:103B500009481549FFB204F0CDFC06A804F0CAFDDF
:103B600092E703A804F0C6FD01202CB0BDE8F08167
:103B7000101E0020D267010840200020C11B002039
:103B800010000020D1780108841C0020CA670108B9
:103B9000FE6A0108CE6701084D6801082068010827
:103BA0002A680108751D00203868010838B50446E8
:103BB0000D460068094904F082FC2946206804F09B
:103BC0007EFC2068064904F07AFC206803689B6943
:103BD0009847BDE83840002005F00EB94864010858
:103BE000CF78010870B5144986B000240546FFF768
:103BF000DDFF0094019428461049114A2346FEF740
:103C00008AFD012818BF632014D129682C2203A83B
:103C100004F048FD03A805F09CF8064603A804F04C
:103C200069FD0094019428460649054A2346FEF79B
:103C300072FD304606B070BD7168010876680108F3
:103C4000136F0108C567010870B55C4E8CB0304633
:103C5000FFF7C8FF012105461E2005F0B7F81F2019
:103C6000002105F0B3F85649564804F043FC564984
:103C7000544804F024FC0A222946524804F0AFFCC0
:103C8000002430465149FFF791FF009401943046DB
:103C90004F49504A2346FEF73EFD012804D003A8B1
:103CA0004D4904F069FD16E009A831680A2204F0C4
:103CB000F9FC4A49474A2346009401943046FEF7EE
:103CC0002AFD09A805F01BF803A809A904F003FDC3
:103CD00009A804F00FFD424909A804F04DFD03A90D
:103CE00009A804F08FFE354E0146364804F0F8FB73
:103CF00009A804F0FFFC002430463A49FFF756FFBC
:103D00000094019430463849324A2346FEF703FDB9
:103D1000012804D006A8304904F02EFD16E009A8B9
:103D200031680A2204F0BEFC2C492A4A234600943A
:103D300001943046FEF7EFFC09A804F0E0FF06A866
:103D400009A904F0C8FC09A804F0D4FC06A9274876
:103D500004F05FFD06A804F0CDFC254909A804F095
:103D60000BFD224909A804F04DFE0146154804F058
:103D7000B7FB09A804F0BEFC1248174904F0BAFBCF
:103D8000072D02D81B48012111E0A5F10803072BDC
:103D900002D8184802210AE0A5F11003072B02D827
:103DA0001448032103E0172D03DD12480421FDF719
:103DB000D1FD03A804F09EFC0CB070BD2C1D0020AA
:103DC0007E68010840200020AC680108B268010844
:103DD000CF780108136F0108D1780108C567010881
:103DE000B7680108BD680108C4680108041E002006
:103DF000CE680108C11B002030B5304985B00024D1
:103E00000546FFF7D3FE0094019428462C492D4A1D
:103E10002346FEF780FC012801D001204BE0284614
:103E20002949FFF7C3FE274A2346284900940194F5
:103E30002846FEF770FC28462549FFF7B7FE009498
:103E40000194029428462349234A1E4BFEF7D0FBD7
:103E5000012802D0214822492AE01C4A194B4FF47C
:103E60007A710094019402942846FEF7C1FB28461B
:103E70001C49FFF79BFE0094019428461A49114AF9
:103E80002346FEF748FC012802D0144817490FE0EA
:103E900028461749FFF78AFE0094019428461549E1
:103EA000084A2346FEF737FC0128B6D00B481249D2
:103EB00004F020FB204605B030BD00BFD7680108E4
:103EC000DE680108136F0108E7680108C56701088B
:103ED00003690108084C01000E6901084020002018
:103EE000186901083869010845690108566901081F
:103EF0006F6901087C6901088D6901082DE9FF419E
:103F0000134B05461F680E469846D8F8003000242B
:103F1000DB1BB34217D228460E49FFF747FE009439
:103F2000019402942846C8210B4A0C4BFEF760FB13
:103F30000446012C4FF0640002D104F05DFF02E062
:103F400004F05AFFE1E7204604B0BDE8F08100BF6D
:103F50009C210020D1780108C5670108136F010872
:103F60001F4B2DE9F3411F6805460E469846D8F8C9
:103F70000030DB1BB3422CD2002428461949FFF73E
:103F800015FE0094019428461749184A2346FEF767
:103F9000C2FB012804D04FF47A7004F02DFFE6E74D
:103FA000134B14498DE81800134A144B2846FEF7AA
:103FB000B2FB009406460194284611490B4A234659
:103FC000FEF7A9FB012E06D003D3032E01D8022051
:103FD00002E0002000E0304602B0BDE8F08100BF02
:103FE0009C210020B6690108BD690108136F010812
:103FF000DC690108C6690108CC690108D4690108B7
:10400000C56701087FB542F210710546FFF776FFDC
:1040100058B3002428462149FFF7C8FD00940194B5
:104020000294284642F210711D4A1E4BFEF7E0FA38
:1040300001281AD128461C49FFF7B8FD00940194C5
:104040000294284642F21071154A164BFEF7D0FA38
:1040500001280AD140F6B83004F0CEFE284642F2DC
:104060001071FFF74BFF064608B9002612E02846FC
:104070000E49FFF79BFD0094019428460849094A20
:104080002346FEF748FB0128EFD1284642F2107183
:10409000FFF766FF304604B070BD00BFE969010854
:1040A000C5670108136F0108F1690108FB69010880
:1040B00070B5164986B000240546FFF777FD0094D9
:1040C000019428461249134A2346FEF724FB01288F
:1040D00018BF042017D12846FFF7AAF929680A2239
:1040E00003A804F0DFFA03A804F033FE064603A891
:1040F00004F000FB0094019428460749054A234632
:10410000FEF709FBF0B206B070BD00BFD76801082A
:10411000DE680108136F0108C5670108F8B5044699
:104120000D4600680E4916461F4604F0C8F9294698
:10413000206804F0C4F93146206804F0C0F939461B
:10414000206804F0B7F92068064904F0B8F920683F
:1041500003689B699847BDE8F840002004F04CBE16
:1041600048640108CF7801082DE9F04300258FB09D
:1041700004468946984990461F46FFF717FD974A1F
:10418000974B4EF660210095019502952046FEF76B
:104190002FFA20469349FFF709FD9049904A2B4694
:1041A000009501952046FEF7B6FA20468E494A460C
:1041B0002223FFF7B3FF0095019520468749884ADF
:1041C0002B46FEF7A8FAB8F1000F0DD0204687491C
:1041D00042462223FFF7A2FF0095019520467F4922
:1041E0007F4A2B46FEF797FA6FB1204680493A4640
:1041F0002223FFF793FF0023009301932046774982
:10420000774AFEF788FA764E0025204679494A46D5
:104210002223FFF783FF32462B4670490095019514
:104220002046FEF778FA20467349FFF7BFFC6B4A39
:1042300033464EF660210095019502952046FEF723
:10424000D7F920466D49FFF7B1FC644A33466C4903
:104250000095019502952046FEF7CAF92046694966
:10426000FFF7A4FC009501950295204647F23051D6
:104270005A4A3346FEF7BCF9012801D00025EDE08B
:1042800020466149FFF792FC009501950295204672
:104290004EF66021514A3346FEF7AAF90128EDD1C6
:1042A00020465A49FFF782FC0095019520464B496C
:1042B00032462B46FEF72FFA0128DFD1204654491B
:1042C000FFF774FC009501952046444932462B4681
:1042D000FEF721FA0128D1D120464E49FFF766FCAE
:1042E0000095019520463D4932462B46FEF713FACC
:1042F0000128C3D14849206804F0E1F84749206803
:1043000004F0DDF84946206804F0D9F844492068F3
:1043100004F0D5F84146206804F0D1F840492068FF
:1043200004F0CDF83946206804F0C9F83D4920680A
:1043300004F0C5F83C49206804F0C1F8206803681F
:104340009B699847284604F057FD00950195029512
:1043500020464EF66021214A3346FEF749F90128EE
:104360008CD120463149FFF721FC0095019502953B
:1043700020464EF66021194A3346FEF739F90128E6
:104380007FF47CAF20462A49FFF710FC294905A895
:1043900004F0F2F90096019502950395204642F249
:1043A000107105AA0D4BFDF7E9FF012844D008A8BC
:1043B0001D4904F0E1F90BA81E4904F0DDF905A838
:1043C00008A90BAA04F016FC0BA804F093F908A89E
:1043D00004F090F93FE000BF016A0108C5670108D9
:1043E000136F0108E76801080A6A01081D6A0108DD
:1043F000316A0108446A0108566A0108616A0108C5
:10440000084C0100036901086C6A0108756A01081B
:104410007F6A01088B6A010848640108976A0108ED
:10442000406A0108426A0108CF7801089F6A0108C2
:10443000A66A0108D178010820460A49FFF7B6FBB1
:104440002B4600950195204607493246FEF763F951
:10445000431E5D425D4105A804F04CF928460FB0AB
:10446000BDE8F083B06A0108C567010838B5364970
:10447000364804F03FF8642004F0BEFC012104201B
:1044800004F0A4FC642004F0B7FC1F20012104F018
:104490009DFCFDF7A1FC00211F2004F097FC2C4897
:1044A000FFF7B0FD2B49294804F009F8642004F017
:1044B000A3FC294B1C681D462A684EF65F23121B7D
:1044C0009A420BD82248FFF7F3FD00F0FB000128C9
:1044D00012D04FF47A7004F08FFCEDE71B481F49AF
:1044E00004F008F81E4B1C7C24B901F083FE01F097
:1044F000E1FE27E0002425E01A49144803F0FAFF02
:104500001949124803F0DBFF1849104803F0F2FF85
:104510000F481649164A174BFFF726FE044678B98E
:104520000A48154903F0E6FF0D4B1B7C1BB901F04F
:1045300061FE01F0BFFE11480521FDF70BFA01E015
:10454000FFF782FB204638BDCD6A010840200020DD
:104550002C1D0020E76A01089C210020456B010802
:10456000941E0020826B0108856B0108B267010868
:10457000126F01081B6F0108006B0108C11B0020AE
:1045800037B50024224621462346114D0094114898
:1045900003F050FF104B284610491C605C609C6083
:1045A0001C739C73DC731C745C7404F0E5F828467F
:1045B0000B490C4A04F0ACFD0B4B83F8514083F8D7
:1045C00052400A4B83F8284083F8294003B030BD9D
:1045D000041E00206C1D0020941E0020D1780108CC
:1045E000F586000808000020781D0020B01E00207D
:1045F0002DE9F04F93B001F0C4FE074628B1AA4B55
:104600001B68984288BF012700E001274FF4A06192
:10461000A648FCF7A7F8A548FCF7DDF8A4498146B1
:10462000A44803F04CFFA34849460A2204F014F8BA
:10463000DFF898829F48B9F1000F0AD09A4B1B68A7
:10464000994506D29C4903F055FF012388F80E30A6
:104650001DE09A4903F04EFF002388F80E304FF01A
:10466000010914E0964903F045FF96492A789648D7
:10467000FEF7F4FB01374FF47A7004F0BDFB3846C7
:1046800001F06EFE914B9B7B002B00F043864F4563
:1046900000F2408698F80E304BB14FF4A061834889
:1046A000FCF760F881483946894AFCF76DF889497A
:1046B0008048874E03F003FF0A2239467D4803F005
:1046C000B8FF85497B4803F0FAFE0A2271697948F0
:1046D00003F07CFF8149774803F0F1FE0A2231693B
:1046E000744803F073FF7D49724803F0E8FE0A2224
:1046F000F168704803F06AFF79496E4803F0DFFE05
:104700000A22B1686B4803F061FF7649694803F0FB
:10471000D6FE0A227168674803F058FF7149654860
:1047200003F0CDFE31680A22624803F058FF664864
:10473000FDF7A7FD0446002800F0FC8598F80C3032
:10474000012B09D168495B4803F0D4FEFEF782FED5
:104750004FF47A7004F050FB6449564803F0CAFEE7
:104760005448634C03F026FD002114220DA8069145
:1047700007F0BAFCFE232370CB2363705423A3708D
:104780005C4B5D4D1A78B06DE2705A7822719A7860
:10479000DB786271A37108232B700623E3714FF657
:1047A000FE7398420AD94A4B93F85C30012B05D02E
:1047B000FF230A2223722A70637218E096F85C3095
:1047C000012B08BFC0F5803006F034FB04220146FF
:1047D000022306A8FBF7CEFE2B789DF81820E254A2
:1047E0009A1C2A7001339DF81920DBB2E25496F826
:1047F0005C30D6F854A0012B2B78504603F101020F
:104800002A700CBFF222E222E2540023069306F043
:104810002FFD4FF6FE73984207DD2B78FF22991C7F
:10482000E25401332970DBB20FE00422022306A810
:104830005146FBF79FFE2B789DF81820E2549A1CF6
:104840002A7001339DF81920DBB295F800A0E254DC
:10485000E2220AF10103DBB204F80A20002114224B
:104860000DA82B700691019307F03EFC326E234990
:10487000DFF884B08A421E4D019B41D9FF22EA54E1
:104880000AF10203DBB2EA540AF10303DBB2EA5491
:104890000AF105030AF1040A5FFA8AFA8BF800307C
:1048A00005F80A204FE000BF14000020C01F0020C0
:1048B000946B010840200020A66B0108B96B010829
:1048C000CE670108401F0020841C0020941E002099
:1048D000CC1B0020D06B0108E36B0108A363010827
:1048E000FD6A01084F660108F96B0108126C0108A6
:1048F000141E0020101E0020741D0020801A0600C7
:10490000A4490DA807F038FE0DA808F051F80DA92C
:10491000024606A8FBF7D0FD9BF800309DF8182052
:104920009DF81910EA545A1CD2B2A9549A1C9DF849
:104930001A10D2B2A9541A1D8BF8002003339DF827
:104940001B20DBB2EA54944D944C2B784FF0000AB4
:104950005A1C2A70E022E254514614220DA8CDF8C8
:1049600018A007F0C1FB8B49726E0DA807F004FE7A
:104970000DA808F01DF80DA9024606A8FBF79CFD3E
:104980002A789DF818309DF81910A354531CDBB2F7
:10499000E1549DF81A10931CDBB2E1549DF81B10F2
:1049A000D31CDBB2E154131DDBB2E220E054306FC4
:1049B000511D4FF6FE73C9B298422970CDF818A068
:1049C00007DDFF236354D11D0632D2B22970A354F0
:1049D00012E006F02FFA04220146534606A8FBF720
:1049E000C9FD2B789DF81820E2549A1C2A700133D7
:1049F0009DF81920DBB2E2542B78E021E1545A1CD7
:104A0000B16FD2B22A70084602910392019306F068
:104A100055FC4FF6FE7E7045DFF87CB1DFF87CA1D7
:104A20000299039A019B0AD9FF210AF80210DA1CA5
:104A30000233DBB28BF800200AF8031013E00422E3
:104A4000012306A8FBF796FD9BF800309DF818207F
:104A50000AF803209A1C8BF8002001339DF81920D6
:104A6000DBB20AF803202B78E122F06F591CE254E4
:104A70004FF6FE72C9B29042DFF81CB12970DFF820
:104A80001CA108D9FF220AF80120D91C02338BF897
:104A90000010DBB214E006F0CDF904220146002339
:104AA00006A8FBF767FD9BF800309DF818200AF870
:104AB00003209A1C8BF8002001339DF81920DBB2EB
:104AC000F06E0AF803204FF6FE73984207D92B7850
:104AD000FF22991CE25401332970DBB211E006F089
:104AE000A9F904220146002306A8FBF743FD2B7811
:104AF0009DF81820E2549A1C2A7001339DF8192061
:104B0000DBB2E2542B78E022706F591CE2544FF66E
:104B1000FE72C9B29042DFF880B02970DFF87CA045
:104B200008D9FF220AF80120D91C02338BF80010A3
:104B3000DBB214E006F07EF904220146002306A849
:104B4000FBF718FD9BF800309DF818200AF80320A9
:104B50009A1C8BF8002001339DF81920DBB20AF86B
:104B600003202B78DFF830B05A1C2A70E022E25480
:104B70000023069396F88C30DFF820A0012B084D17
:104B800012D1D5F8883007A803F10043C5F8883062
:104B900004490BE03C6C0108741D0020141E002029
:104BA000CC1B0020426C0108C54907A803F0E4FDB6
:104BB00007A90AA803F023FED5F888100AA803F075
:104BC00068FF0146BF4803F08BFC0AA803F092FD82
:104BD00007A803F08FFDD5F8881006A80422022349
:104BE000FBF7C8FC9BF800309DF81820B64D0AF87A
:104BF00003209A1C8BF8002001339DF81920DBB2AA
:104C00000AF8032096F88C30D6F890A0012B2B7868
:104C1000504603F101022A700CBFF222E222E25454
:104C20000023069306F024FB4FF6FE73984207DD3F
:104C30002B78FF22991CE25401332970DBB20FE07C
:104C40000422022306A85146FBF794FC2B789DF81A
:104C50001820E2549A1C2A7001339DF81920DBB207
:104C600095F800A0E254E2220AF10103DBB204F855
:104C70000A20002114220DA82B700691019307F041
:104C800033FAD6F880209149DFF83CB28A42904D41
:104C9000019B14D9FF22EA540AF10203DBB2EA5461
:104CA0000AF10303DBB2EA540AF105030AF1040A2C
:104CB0005FFA8AFA8BF8003005F80A2022E085496D
:104CC0000DA807F059FC0DA807F072FE0DA90246C9
:104CD00006A8FBF7F1FB9BF800309DF818209DF823
:104CE0001910EA545A1CD2B2A9549A1C9DF81A10F1
:104CF000D2B2A9541A1D8BF8002003339DF81B2053
:104D0000DBB2EA54704C724D23784FF0000A5A1C03
:104D10002270E022EA54514614220DA8CDF818A0C2
:104D200007F0E2F96B49D6F884200DA807F024FCBF
:104D30000DA807F03DFE0DA9024606A8FBF7BCFB37
:104D400022789DF818309DF81910AB54531CDBB233
:104D5000E9549DF81A10931CDBB2E9549DF81B101E
:104D6000D31CDBB2E954131DDBB2E220E854D6F8C1
:104D70009400511D4FF6FE73C9B298422170CDF8D0
:104D800018A007DDFF236B54D11D0632D2B221706B
:104D9000AB5412E006F04EF804220146534606A832
:104DA000FBF7E8FB23789DF81820EA549A1C227040
:104DB00001339DF81920DBB2EA542378E022D6F8BB
:104DC0009800591CEA544FF6FE72C9B29042DFF8BF
:104DD000F8B02170DFF8F8A008D9FF220AF8012006
:104DE000D91C02338BF80010DBB214E006F022F875
:104DF00004220146002306A8FBF7BCFB9BF8003009
:104E00009DF818200AF803209A1C8BF80020013323
:104E10009DF81920DBB20AF803202378E022D6F8A7
:104E20009C00591CEA544FF6FE72C9B29042DFF85A
:104E300098B02170DFF898A008D9FF220AF8012065
:104E4000D91C02338BF80010DBB214E005F0F2FF3E
:104E500004220146002306A8FBF78CFB9BF80030D8
:104E60009DF818200AF803209A1C8BF800200133C3
:104E70009DF81920DBB20AF803202378E021E954D9
:104E8000B06A002103F1010E06914FF6FE715FFA40
:104E90008EFE884284F800E00D4A1FD90E4991F831
:104EA0002C1001291AD0FF2102F80E10064803F138
:104EB000030E0233DBB280F800E0D1542AE000BFD9
:104EC0006C6C010840200020741D0020400D030080
:104ED000141E00203C6C0108CC1B002096F82C30DE
:104EE000012B08BFC0F5803005F0A4FFA44906F0EF
:104EF000ADF804220146022306A8FBF73BFB23780A
:104F00009DF81820EA549A1C227001339DF819204C
:104F1000DBB2EA5496F82C30D6F824A0012B237883
:104F2000504603F1010222700CBFF222E222EA5441
:104F30000023069306F09CF94FF6FE73984207DDB6
:104F40002378FF22991CEA5401332170DBB20FE071
:104F50000422022306A85146FBF70CFB23789DF898
:104F60001820EA549A1C227001339DF81920DBB2F4
:104F7000EA542278306BE223511C4FF6FE7EC9B210
:104F8000AB5470454FF00003DFF80CB22170DFF82E
:104F90000CA206930AD9FF230AF80130D11C023271
:104FA000D2B28BF800100AF8023017E0019305F036
:104FB00041FF04220146019B06A8FBF7DBFA9BF8A0
:104FC00000309DF818200AF803209A1C8BF8002066
:104FD00001339DF81920DBB20AF803202278706BA8
:104FE000E023511C4FF6FE76C9B2AB54B0424FF0ED
:104FF0000003DFF8A4B12170DFF8A0A106930AD95D
:10500000FF230AF80130D11C0232D2B28BF8001013
:105010000AF8023017E0019305F00CFF0422014664
:10502000019B06A8FBF7A6FA9BF800309DF8182014
:105030000AF803209A1C8BF8002001339DF81920F0
:10504000DBB20AF8032023784E4EE022EA549A1C81
:105050002270013396F83C20DBB20B20EA54FCF7B7
:105060003FFE0DF1170107AA0AABFBF7E9F9237818
:105070009DF817204448EA549A1C227001339DF889
:105080001C20DBB2EA54FEF7ADFD0DF1170107AAB3
:105090000AABFBF7D5F923789DF817200DF117011E
:1050A000EA549A1C227001339DF81C20DBB2EA54AA
:1050B000706907AA0AABFBF7C3F994F800A09DF842
:1050C00017309DF81C2005F80A300AF10103DBB205
:1050D000EA54307C0AF103032370FBF7E3F90AF189
:1050E000020A5FFA8AFA05F80A0094F800A0307BF9
:1050F0000AF101032370FBF7D5F905F80A0094F8CB
:1051000000A0307A0AF101032370FBF7CBF905F810
:105110000A0094F800A030790AF101032370FBF72C
:10512000C1F905F80A0094F800A030780AF10103EB
:105130002370FBF7B7F9217805F80A000339134803
:10514000A970FEF75EF923781149E8549A1C0133DF
:105150002270DBB20D220F48EA5403F0B0F90024AC
:105160000D4D0C482B789C421CD20C4B1022195D23
:1051700003F04DFA07480A4903F0A1F90134EFE7BB
:1051800000002041CC1B00202C1D0020171E0020F9
:10519000CA67010840200020741D0020141E002052
:1051A000FE6A0108774903F0A5F92A78764977481D
:1051B000FDF754FE4FF47A7003F01EFE74497548F3
:1051C000754D03F097F9734802F0F4FFFE232B703E
:1051D000C1236B701823AB70704B714C1A78EA7056
:1051E0005A782A719A78DB786A71AB7107226D4B15
:1051F00022700DAA1046196807F07CFB00230246B6
:10520000AE46D15CA1F13000C0B209288ABF57393F
:10521000D054D1540133142BF3D123784FF0000A2A
:1052200002EB0A0003EB0A01C0790AF1010AC9B2D4
:10523000BAF10D0F584D0EF80100F1D10D3306A94A
:105240002370706907AA0AABFBF7FAF894F800B06C
:105250009DF818309DF81C2005F80B300BF1010368
:10526000DBB2EA54307C0BF103032370FBF71AF92D
:105270000BF1020B5FFA8BFB05F80B0094F800B002
:10528000307B0BF101032370FBF70CF905F80B00E1
:1052900094F800B0307A0BF101032370FBF702F9A8
:1052A00005F80B0094F800B030790BF1010323707E
:1052B000FBF7F8F805F80B0094F800B030780BF124
:1052C00001032370FBF7EEF8217805F80B00033992
:1052D000E81CA970FEF795F823783349E8549A1C26
:1052E0000133DBB22B48227005F803A003F0E7F886
:1052F00000242B4D27482B789C42BFF4B3A9264BA2
:105300001022195D03F083F92248284903F0D7F8E9
:105310000134EEE798F80E308BB1FCF7D3FC4FF474
:10532000A0612348FBF71EFA2148FBF756FAFCF769
:10533000D3FC04E01548FDF74BFC20461FE01D4858
:1053400001F0F7F8D8F804304AF684023C3B934267
:10535000014602D9184BB4225A60D8F804301548D7
:10536000194401F0F3F8D8F804101448FCF774FA63
:10537000012000F0F5FF0548FDF72AFC012013B0DD
:10538000BDE8F08FCE670108141E0020841C0020A9
:10539000976C010840200020401F0020101E0020B4
:1053A000001E0020041E0020CA670108FE6A0108D2
:1053B000C01F0020C21B0020941E0020C11B002023
:1053C00010B51248124903F095F81248FCF759FF3E
:1053D00060B1FFF70DF904460F490C481CB103F00A
:1053E00089F8012010BD03F085F80DE007480B494E
:1053F00003F080F80A4B1B7C1BB900F0FBFE00F0A9
:1054000059FF0448FDF7E4FB002010BD40200020B8
:10541000B66C0108841C0020D1780108E56C0108F5
:10542000941E0020F0B5A7B007A8984903F0A4F98E
:105430009748FCF726FF002800F07883954D6B7C99
:10544000002B40F073839248FDF76EFC0028EFDDDF
:105450006E7C002EECD18E48FCF7F9FEC1B200291B
:10546000F1D007A803F067FA8B4919A803F084F973
:1054700007A819A903F017FB044619A803F03AF985
:10548000002CE0D00A220AA8814903F00BF97F49D9
:105490000DA803F071F90B22314604A806F024FE92
:1054A0007E4919A803F068F90AA919A803F0AAFA15
:1054B00001467B4803F014F819A803F01BF978485B
:1054C00002F078FE774916A803F056F916A90AA843
:1054D00003F043FB324603460AA919A803F064FB14
:1054E00019A90DA803F095F919A803F003F916A856
:1054F00003F000F90DA804A90B22334603F0F8FAD3
:105500009DF810309DF81300303BC3EB431103EBC3
:1055100081039DF811109DF812203039303801EBCD
:10552000810100EBC30301EB8101303A5E4C03EBD8
:10553000810102EB820201EB42029DF81530E2800C
:105540009DF81620303B303A03EB830302EB430314
:1055500063719DF818309DF81920303B303A03EB09
:10556000830302EB430331460B2204A8237106F0A8
:10557000BBFD4E4919A803F0FFF80DA919A803F0C7
:1055800041FA0146464802F0ABFF19A803F0B2F811
:10559000434802F00FFE434916A803F0EDF816A9A0
:1055A0000AA803F0DAFA0C9B421C0AA919A803F016
:1055B000FBFA19A90AA803F02CF919A803F09AF824
:1055C00016A803F097F8374916A803F0D5F816A9DE
:1055D0000AA803F0C2FA324603460AA919A803F042
:1055E000E3FA19A90DA803F014F919A803F082F839
:1055F00016A803F07FF80B2233460DA804A903F088
:1056000077FA2B4919A803F0B7F80DA919A803F0E8
:10561000F9F90146224802F063FF19A803F06AF87D
:105620001F4802F0C7FD9DF810309DF81120303B57
:10563000303A03EB830302EB4303A3709DF813306E
:105640009DF81420303B303A03EB830302EB430315
:1056500063709DF816309DF81720303B303A03EB0D
:10566000830302EB430320462370FAF727FE01462B
:10567000104800F05BFFA3780F2B1DD163783B2B04
:105680001AD8044B01221A7318E000BFD178010820
:10569000841C0020941E0020116D0108196D010862
:1056A000402000205C640108C41B00202C6D010810
:1056B000426D0108C21B002000232B739F4800F09D
:1056C00038FF01469E48FAF76DFD2179E28863793B
:1056D0000091A17819A80191617802912178039134
:1056E000984906F049FF19A9974802F003FF974926
:1056F00013A803F041F813A90AA803F02EFA0C9B93
:10570000421C0AA916A803F04FFA16A90AA803F02A
:1057100080F816A802F0EEFF13A802F0EBFF8B4909
:1057200013A803F029F813A90AA803F016FA002217
:1057300003460AA916A803F037FA16A90DA803F024
:1057400068F816A802F0D6FF13A802F0D3FF0DA840
:1057500003F0FFFA7E49286016A803F00DF80DA9A2
:1057600016A803F04FF90146774802F0B9FE16A8D3
:1057700002F0C0FF744802F01DFD2B684AF6840257
:105780003C3B934202D9734BB4221A606F4913A871
:1057900002F0F2FF13A90AA803F0DFF90C9B421CE8
:1057A0000AA916A803F000FA16A90AA803F031F80E
:1057B00016A802F09FFF13A802F09CFF634913A8EC
:1057C00002F0DAFF13A90AA803F0C7F90022034682
:1057D0000AA916A803F0E8F916A90DA803F019F80C
:1057E00016A802F087FF13A802F084FF0DA803F0AB
:1057F000B0FA5949686016A802F0BEFF0DA916A8B4
:1058000003F000F90146504802F06AFE16A802F0C3
:1058100071FF4D4802F0CEFC6B684AF684023C3BB7
:10582000934202D94B4BB4225A60484913A802F064
:10583000A3FF13A90AA803F090F90C9B421C0AA924
:1058400016A803F0B1F916A90AA802F0E2FF16A8FB
:1058500002F050FF13A802F04DFF3C4913A802F0DC
:105860008BFF13A90AA803F078F9002203460AA9BE
:1058700016A803F099F916A90DA802F0CAFF16A8F8
:1058800002F038FF13A802F035FF0DA803F061FA0B
:105890003249A86016A802F06FFF0DA916A803F000
:1058A000B1F80146284802F01BFE16A802F022FFBC
:1058B000254802F07FFC254913A802F05DFF13A9DB
:1058C0000AA803F04AF90C9B421C0AA916A803F087
:1058D0006BF916A90AA802F09CFF16A802F00AFFAD
:1058E00013A802F007FF00210AA803F0F3F80378D9
:1058F0001B4916A86B7302F03FFF0AA916A803F014
:1059000081F80146104802F0EBFD16A802F0F2FE05
:105910000D4802F04FFC2E7B0E4C012E40F0DC8037
:10592000E37B3BBB0F48FEF767FA07460648EFB13B
:105930000D4902F0DFFDE6731CE000BFC21B002032
:10594000C41B0020586D0108402000205C64010841
:105950007E6D0108941E0020916D0108A16D010863
:10596000AC6D01082C1D0020B76D0108724902F0D2
:10597000C1FDE773EB7B002B00F0AE806F4B5B7BD0
:105980004C2B55D16E4E6F4910A802F0F5FE002445
:1059900030466D49FEF70AF90094019402943046AE
:1059A0006A496B4A6B4BFCF723FE012804D013A80D
:1059B000644902F0E1FE16E016A831680A2202F0FE
:1059C00071FE6549634A2346009401943046FCF712
:1059D000A2FE16A803F093F913A816A902F07BFE05
:1059E00016A802F087FE13A910A802F012FF13A850
:1059F00002F080FE594916A802F0BEFE10A916A8B2
:105A000003F000F80146564802F06AFD16A802F0BD
:105A100071FE002310A916A8EB7302F0F0FE16A881
:105A20005049FAF745FF16A802F064FE10A851E0AD
:105A3000472B51D1424E4C493046FEF7B7F800246F
:105A4000642003F0D9F90094019430464749414A53
:105A50002346FCF760FE012808D04549404802F083
:105A600049FD13A8374902F087FE16E016A83168F1
:105A70000A2202F017FE3849364A23460094019460
:105A80003046FCF748FE16A803F039F913A816A90A
:105A900002F021FE16A802F02DFE364916A802F0EB
:105AA0006BFE13A916A802F0ADFF01462C4802F0C8
:105AB00017FD16A802F01EFE13A916A802F09FFEFD
:105AC0002D4916A8FBF7A2F816A802F013FE002332
:105AD000EB7313A802F00EFE1A49214802F00AFDEA
